S014000044726976655F4D6F64756C652E7372656351
S11300000C9456000C9460000C9460000C946000F6
S11300100C9460000C9460000C9460000C946000DC
S11300200C9460000C9460000C9460000C946000CC
S11300300C9460000C9460000C9460000C946000BC
S11300400C9460000C9460000C9460000C946000AC
S11300500C9460000C9460000C9460000C9460009C
S11300600C9460000C9460000C9460000C9460008C
S11300700C9460000C9460000C9460000C9460007C
S11300800C9460000C9460000C9460000C9460006C
S11300900C9460000C9460000C9460000C9460005C
S11300A00C9460000C9460000C94600011241FBE3A
S11300B0CFEFCDBFD7E2DEBF0E94A6000C94C200F2
S11300C00C94000082E080935000E0E5F0E0818130
S11300D081FFFDCF88ED84BFE0E4F0E0118284BFAE
S11300E081E08083E0E0F6E08CE08083A0E0B2E091
S11300F01C9211961C92119712961C92A0E0B3E0E8
S11301001C9211961C92119712961C9283E0809374
S1130110400688E08093600688E3828B838B2FEF10
S113012087EA91E6215080409040E1F700C000004A
S11301300895E0ECF9E086E0868380E48783128208
S113014088E1838383E08483158208950E9462009A
S11301500E949900E0E0F6E08CE014822FEF37EA89
S113016091E6215030409040E1F700C000008483C4
S11301702FEF37EA91E6215030409040E1F700C07C
S10B01800000EBCFF894FFCF5F
S9030000FC
