S014000044726976655F4D6F64756C652E7372656351
S11300000C9457000C9474000C9474000C947400B9
S11300100C9474000C9474000C9474000C9474008C
S11300200C9474000C9474000C9474000C9474007C
S11300300C9474000C9474000C9474000C9474006C
S11300400C9474000C9474000C9474000C9474005C
S11300500C9474000C9474000C9474000C9474004C
S11300600C9474000C9474000C9474000C9474003C
S11300700C9474000C9474000C9474000C9474002C
S11300800C9474000C9474000C9474000C9474001C
S11300900C9474000C9474000C9474000C9474000C
S11300A00C9474000C9474000C947400E2011124F8
S11300B01FBECFEFCDBFD7E2DEBF20E2A0E0B0E2AB
S11300C001C01D92AE30B207E1F710E0C7E5D0E001
S11300D004C02197FE010E94F601C635D107C9F775
S11300E00E94CA010C94FC010C94000082E08093ED
S11300F05000E0E5F0E0818181FFFDCF88ED84BF11
S1130100E0E4F0E0118284BF81E080838CE080939E
S11301100006E0E0F2E0108211821282E0E0F3E0F7
S1130120108211821282E0E4F6E083E0808388E2A8
S1130130808B818BE0E6F6E088E08083138A2FEFE2
S113014087EA91E6215080409040E1F700C000002A
S11301500895E0ECF9E082E286831782128288E156
S1130160838383E0848315820895E0E8F4E01082B9
S113017086E9858388E08183128213828481816089
S11301808483089580938604E0E8F4E0948195FFE5
S1130190FDCF23E330E0E0E8F4E007C086839481F8
S11301A095FFFDCF21503109D1F0948194FDF6CF14
S11301B060938704E0E8F4E0848185FFFDCF4093F9
S11301C08704E0E8F4E0848185FFFDCF83E0809339
S11301D083048FE39FE10197F1F700C000000895C5
S11301E0CF93DF93C7E0D0E2488160E088E50E94C6
S11301F0C2004C8160E288E50E94C2004B8160E449
S113020088E50E94C2004A8160E688E50E94C20037
S11302108D818823A9F040E060E08AE50E94C20055
S1130220498160E28AE50E94C20040E060E48AE518
S11302300E94C2004E8160E68AE50E94C20016C098
S1130240C7E0D0E2498160E08AE50E94C20040E054
S113025060E28AE50E94C2004E8160E48AE50E9461
S1130260C20040E060E68AE50E94C200C0E0D0E23D
S1130270488160E08CE50E94C2004C8160E28CE51C
S11302800E94C2004B8160E48CE50E94C2004A8156
S113029060E68CE50E94C20080910C208823A9F0BE
S11302A040E060E08EE50E94C200498160E28EE594
S11302B00E94C20040E060E48EE50E94C2004E81CC
S11302C060E68EE50E94C20016C0C0E0D0E249811B
S11302D060E08EE50E94C20040E060E28EE50E948C
S11302E0C2004E8160E48EE50E94C20040E060E6F8
S11302F08EE50E94C200DF91CF910895E1ECF9E010
S113030080818823ECF78091C00908950F931F938F
S1130310CF93DF93EC018C010C5E1F4F0E947E0192
S11303208993833419F0C017D107C1F7DF91CF91B6
S11303301F910F910895FC018081813429F58181F9
S1130340A7E0B0E214968C931497828113968C9351
S11303501397838112968C931297848111968C93B0
S1130360A0E0B0E2878114968C931497808513964D
S11303708C931397818512968C931297828511968C
S11303808C93119783858C93E7E0F0E28FEF83835E
S1130390808308950E9476000E94A9000E94B500FF
S11303A00E94F000C1ECD9E088818823ECF700E0DA
S11303B010E0C8010E948601C8010E949B010E94AE
S11303C0F000F2CFE7E0F0E2108211821282138291
S11303D0148281E085831682E0E0F0E210821182CB
S11303E0128213821482858316820895EE0FFF1FF2
S10F03F00590F491E02D0994F894FFCFDF
S9030000FC
