S014000044726976655F4D6F64756C652E7372656351
S11300000C9456000C9460000C9460000C946000F6
S11300100C9460000C9460000C9460000C946000DC
S11300200C9460000C9460000C9460000C946000CC
S11300300C9460000C9460000C9460000C946000BC
S11300400C9460000C9460000C9460000C946000AC
S11300500C9460000C9460000C9460000C9460009C
S11300600C9460000C9460000C9460000C9460008C
S11300700C9460000C9460000C9460000C9460007C
S11300800C9460000C9460000C9460000C9460006C
S11300900C9460000C9460000C9460000C9460005C
S11300A00C9460000C9460000C94600011241FBE3A
S11300B0CFEFCDBFD7E2DEBF0E94AF000C940A01A0
S11300C00C94000082E080935000E0E5F0E0818130
S11300D081FFFDCF88ED84BFE0E4F0E0118284BFAE
S11300E081E0808310920006E0E4F6E0108288E06C
S11300F08093600680E3828782E08187148A158A70
S113010080E88FBF2FEF87EA91E62150804090402E
S1130110E1F700C000000895E0ECF9E08CE086838C
S113012080E48783128288E1838383E08483158259
S11301300895672B39F4E1ECF9E0908195FFFDCF48
S11301408093C0090895892B41F4E1ECF9E08081A2
S11301508823ECF78091C009089580E008950E94F7
S113016062000E948C0010E0C0E4D6E00F2EF0E69E
S1130170CF2EF6E0DF2EF02D08E00F2EF1ECEF2E5F
S1130180F9E0FF2EF02D8C858823C1F111113EC0BA
S113019031C08C8580618C8706C08C8585FF03C047
S11301A08C8580628C87F601048311E010C01111E4
S11301B029C00DC08C8580618C8706C08C8585FF25
S11301C003C08C8580628C87F601148210E0F701ED
S11301D08081882344F480E090E00E94A30060E0E2
S11301E070E00E9499008FE39FE10197F1F700C04E
S11301F00000C9CF8C8584FDCCCFCFCF8C858111F5
S1130200D6CFE5CF8C8584FDD5CFD8CF8C85811111
S10B0210F9CFDDCFF894FFCF14
S9030000FC
