:100000000C9461000C947E000C947E000C947E0095
:100010000C947E000C947E000C947E000C947E0068
:100020000C947E000C947E000C947E000C947E0058
:100030000C947E000C947E000C947E000C947E0048
:100040000C947E000C947E000C947E000C947E0038
:100050000C947E000C947E000C947E000C947E0028
:100060000C947E000C947E000C947E000C947E0018
:100070000C947E000C947E000C947E000C947E0008
:100080000C947E000C947E000C947E000C947E00F8
:100090000C947E000C947E000C947E000C947E00E8
:1000A0000C947E000C947E000C947E00F8010A02F1
:1000B0001C022E02400252026402760288029A0258
:1000C000AC0211241FBECFEFCDBFD7E2DEBF10E2DE
:1000D000A0E0B0E2E2E5F8E002C005900D92A236A1
:1000E000B107D9F720E2A2E6B0E201C01D92A63A1C
:1000F000B207E1F70E94BE020C9427040C940000A2
:10010000CF93DF9382E080935000E0E5F0E08181BF
:1001100081FFFDCF88ED84BFE0E4F0E0118284BF71
:1001200081E0808380E096E0DC011C92E0E4F6E070
:10013000108220E636E048E0D9014C934FEFDC0115
:100140001A964C93428747EFD9011A964C9342E096
:100150004187148A158A40E84FBFBFEF47EA51E64E
:10016000B15040405040E1F700C00000DC0118965B
:100170004C911897CFE6D0E242954170488318968B
:100180004C9164E670E245FB442740F9DB014C9357
:10019000DC0118964C91189746FB442740F9498397
:1001A00018964C91441F4427441FDB0111964C9331
:1001B000D90118964C91189741704A8318964C9122
:1001C00046954170DB0112964C93D90118964C91DB
:1001D0001897429541704B8318964C9145FB4427E4
:1001E00040F9DB0113964C93D90118964C9118975E
:1001F00046FB442740F94C8318962C91221F222756
:10020000221FDB0114962C93DC0118962C91189771
:1002100023FB222720F92D8318962C9122FB2227DD
:1002200020F9DB0115962C93DC0118962C91189778
:10023000269521702E8318968C918170DB0116967D
:100240008C9316978085881F8827881F8F838085C9
:1002500086FB882780F917968C931797808585FBF6
:10026000882780F9888780858295817018968C937D
:100270001897808583FB882780F98987808582FB92
:10028000882780F919968C931997808581708A87C1
:100290008085869581701A968C93DF91CF91089511
:1002A000E0ECF9E08CE0868380E48783128288E1C9
:1002B000838383E0848315820895672B39F4E1EC0E
:1002C000F9E0908195FFFDCF8093C00908950F93C9
:1002D0001F93CF93DF93EC018881882341F08B013A
:1002E0002196B8010E945D0189918111FACFDF91B9
:1002F000CF911F910F91089590E0FC01EC59FF4DB3
:10030000308121E023272083FC01E159FF4D30811A
:10031000231316C0880F991F880F991FFC01E658F8
:10032000FF4D80819181A281B3810196A11DB11DF4
:1003300080839183A283B38381E0809363200895B7
:10034000880F991F880F991FFC01E658FF4D808187
:100350009181A281B3810197A109B1098083918321
:10036000A283B38310926320089590E0FC01E159C9
:10037000FF4D308121E023272083FC01EC59FF4D04
:1003800030812317B1F0880F991F880F991FFC0146
:10039000E658FF4D80819181A281B3810196A11D14
:1003A000B11D80839183A283B38381E08093632016
:1003B0000895880F991F880F991FFC01E658FF4D7B
:1003C00080819181A281B3810197A109B1098083C4
:1003D0009183A283B38310926320089590E08B30C1
:1003E000910508F0CAC0FC01EA5AFF4F0C942104A1
:1003F00080916320882339F082E090E2809300208E
:1004000090930120089586E090E2809300209093DD
:100410000120089580916320882339F08AE090E2DA
:10042000809300209093012008958EE090E28093C5
:10043000002090930120089580916320882339F053
:1004400082E190E28093002090930120089586E15C
:1004500090E2809300209093012008958091632082
:10046000882339F08AE190E2809300209093012064
:1004700008958EE190E280930020909301200895EA
:1004800080916320882339F082E290E280930020FB
:1004900090930120089586E290E28093002090934B
:1004A0000120089580916320882339F08AE290E248
:1004B000809300209093012008958EE290E2809333
:1004C000002090930120089580916320882339F0C3
:1004D00082E390E28093002090930120089586E3C8
:1004E00090E28093002090930120089580916320F2
:1004F000882339F08AE390E28093002090930120D2
:1005000008958EE390E28093002090930120089557
:1005100080916320882339F082E490E28093002068
:1005200090930120089586E490E2809300209093B8
:100530000120089580916320882339F08AE490E2B5
:10054000809300209093012008958EE490E28093A0
:10055000002090930120089580916320882339F032
:1005600082E590E28093002090930120089586E533
:1005700090E2809300209093012008950E948000D3
:100580000E945001C0E0D6E00F2EF0E4EF2EF6E01E
:10059000FF2EF02D00E616E00F2EFAE07F2EF02D54
:1005A0000F2EF9E08F2EF02D6894992493F80F2EDA
:1005B000F7E0AF2EF02D0F2EF6E0BF2EF02D0F2E10
:1005C000F5E0CF2EF02D6894DD24D2F89C859111B2
:1005D00008C0F7019485911104C0F801948599230E
:1005E000A9F39C8594FF09C01092622080E00E94CC
:1005F000B5018C8580618C8717C19C8595FF09C0EA
:100600001092622080E00E947C018C8580628C8741
:100610000BC18C8586FF09C081E0809362200E9417
:10062000B5018C8580648C87FFC08C8588234CF451
:1006300081E0809362200E947C018C8580688C8799
:10064000F3C0F801848580FF0AC082E080936220B5
:100650000E94B501F801848581608487E5C0F801B6
:10066000848581FF0AC082E0809362200E947C0121
:10067000F801848582608487D7C0F801848584FF6F
:100680000AC083E0809362200E94B501F80184854E
:1006900080618487C9C0F801848585FF0AC083E032
:1006A000809362200E947C01F801848580628487A7
:1006B000BBC0F801848586FF0AC0D09262208D2DD0
:1006C0000E94B501F801848580648487ADC0F8017B
:1006D0008485882354F4D09262208D2D0E947C0161
:1006E000F8018485806884879FC08C8583FF09C05A
:1006F000C09262208C2D0E94B5018C8588608C8709
:1007000093C08C8582FF09C0C09262208C2D0E940C
:100710007C018C8584608C8787C08C8581FF09C0B3
:10072000B09262208B2D0E94B5018C8582608C87EF
:100730007BC08C8580FF09C0B09262208B2D0E9407
:100740007C018C8581608C876FC0F701848588234C
:1007500054F4A09262208A2D0E94B501F70184858D
:100760008068848761C0F701848586FF0AC0A092F3
:1007700062208A2D0E947C01F70184858064848731
:1007800053C0F701848585FF0AC090926220892DAD
:100790000E94B501F70184858062848745C0F70116
:1007A000848584FF0AC090926220892D0E947C017A
:1007B000F70184858061848737C0F701848583FFD2
:1007C0000AC080926220882D0E94B501F7018485BD
:1007D0008860848729C0F701848582FF0AC08092DF
:1007E0006220882D0E947C01F701848584608487C3
:1007F0001BC0F701848580FF0AC070926220872D9C
:100800000E94B501F7018485816084870DC0F701DE
:10081000848581FF09C070926220872D0E947C012F
:10082000F701848582608487809162200E94EE01B6
:1008300060E070E080910020909101200E946701AB
:10084000C5CEEE0FFF1F0590F491E02D0994F894AA
:02085000FFCFD8
:10085200022051302B0051302D0051312B005131EB
:100862002D0051322B0051322D0051332B005133C8
:100872002D0051342B0051342D0051352B005135B0
:100882002D0051362B0051362D0051372B00513798
:100892002D0051382B0051382D0051392B00513980
:1008A2002D0051412B0051412D0051305F3030302D
:0208B200300014
:00000001FF
