S01100004D61696E626F6172642E7372656386
S11300000C9412010C9433010C9433010C943301BD
S11300100C9433010C9433010C9433010C9433018C
S11300200C9433010C9433010C9433010C9433017C
S11300300C9433010C9433010C9433010C9433016C
S11300400C9433010C9433010C9433010C9433015C
S11300500C9433010C9433010C9433010C9433014C
S11300600C9433010C9433010C9433010C9433013C
S11300700C9433010C9433010C9433010C9433012C
S11300800C9433010C9433010C9433010C9433011C
S11300900C9433010C9433010C9433010C9433010C
S11300A00C9433010C9433010C9433010C943301FC
S11300B00C9433010C9433010C9433010C943301EC
S11300C00C9433010C9433010C9433010C943301DC
S11300D00C9433010C9433010C9433010C943301CC
S11300E00C9433010C9433010C9433010C943301BC
S11300F00C9433010C9433010C9433010C943301AC
S11301000C9433010C9433010C9433010C9433019B
S11301100C9433010C9433010C9433010C9433018B
S11301200C9433010C9433010C9433010C9433017B
S11301300C9433010C9433010C9433010C9433016B
S11301400C9433010C9433010C9433010C9433015B
S11301500C9433010C9433010C9433010C9433014B
S11301600C9433010C9433010C9433010C9433013B
S11301700C9433010C9433010C9433010C9433012B
S11301800C9433010C9433010C9433010C9433011B
S11301900C9433010C9433010C9433010C9433010B
S11301A00C9433010C9433010C9433010C943301FB
S11301B00C9433010C9433010C9433010C943301EB
S11301C00C9433010C9433010C9433010C943301DB
S11301D00C9433010C9433010C9433010C943301CB
S11301E00C9433010C9433010C9433010C943301BB
S11301F00C9433010C9433010C9433018E07930750
S113020098079D07A2078E07930798079D07A207E3
S11302100C94A2070C9493070C9498070C948E07E3
S11302200C949D0711241FBECFEFCDBFDFE5DEBFC9
S113023000E00CBF15E2A0E0B0E2E6E8FFE000E079
S11302400BBF02C007900D92AC35B107D9F725E278
S1130250ACE5B5E201C01D92AE35B207E1F70E94EC
S11302605D060C94C1070C94000082E0809350005A
S1130270E0E5F0E0818181FFFDCF88ED84BFE0E41B
S1130280F0E0118284BF81E08083A0E0B6E088EFD3
S11302908C93E0E0F2E010821182128214961C9298
S11302A0E0E2F6E08FEF8083A0E4B2E01C921196C6
S11302B01C92119712961C92108A118A148A158A1C
S11302C0168A1482109240069BEB909360069093DA
S11302D08006E0EAF6E0808314822FEF87EA91E655
S11302E0215080409040E1F700C000000895E0EB09
S11302F0F9E022E226831782138298E1948383E053
S11303008583E0EAFAE02683178213829483858347
S1130310E0EBFAE0268317821382948385830895A1
S11303206130710599F01CF4672B41F00895623037
S11303307105A1F063307105C9F00895E1EAF9E0AF
S1130340908195FFFDCF8093A0090895E1EBF9E03A
S1130350908195FFFDCF8093B0090895E1EAFAE01A
S1130360908195FFFDCF8093A00A0895E1EBFAE018
S1130370908195FFFDCF8093B00A08958130910557
S113038091F01CF4892B39F026C08230910599F044
S11303900397C9F020C0E1EAF9E080818823ECF7F3
S11303A08091A0090895E1EBF9E080818823ECF7BE
S11303B08091B0090895E1EAFAE080818823ECF79E
S11303C08091A00A0895E1EBFAE080818823ECF79C
S11303D08091B00A089580E00895E0E2F6E090E2AA
S11303E095838093A40680E4868385830895282FCB
S11303F030E09FEB980F9A3118F4275331090BC062
S113040090ED980F9A3018F42053310904C08032CB
S113041011F428E230E0C9010895882329F090E01E
S113042000009F5F9813FCCF0895CF93DF93C0E241
S1130430D6E090E29E838093A4068AE00E940D0297
S113044080E48E838D83DF91CF91089588E20E94AA
S1130450150281E10E94150286E30E94150280E8DC
S11304600E94ED018AE30E94150285E50E94ED01D8
S113047082EB0E9415028CE00E94ED018CE00E9448
S1130480ED0180E00E94ED0183E30E94ED0183E32E
S11304900E94ED0187EB0E94150285E30E94ED01A5
S11304A08BEB0E9415028BE20E94ED0180EC0E940E
S11304B015028CE20E94ED0182EC0E94150281E09B
S11304C00E94ED018FEF0E94ED0183EC0E94150262
S11304D081E10E94ED0184EC0E94150280E20E94F9
S11304E0ED0186EC0E9415028FE00E94ED0180ED83
S11304F00E94150284EA0E94ED0181EA0E94ED0146
S113050080EE0E94150280ED0E94ED0180E00E94C1
S1130510ED0185E00E94ED018EE00E94ED0185E190
S11305200E94ED018DE00E94ED0187E30E94ED0140
S113053083E40E94ED0187E40E94ED0189E00E94BA
S1130540ED0185E10E94ED0182E10E94ED0186E169
S11305500E94ED0189E10E94ED0181EE0E941502E5
S113056080ED0E94ED0180E00E94ED0185E00E9493
S1130570ED018DE00E94ED018CE00E94ED0186E02A
S11305800E94ED018DE20E94ED0184E40E94ED01E0
S113059080E40E94ED018EE00E94ED018CE10E9456
S11305A0ED0188E10E94ED0186E10E94ED0189E1FF
S11305B00E94ED018AE20E94150280E00E94ED0192
S11305C080E00E94ED0180E00E94ED018FEE0E9428
S11305D0ED018BE20E94150280E00E94ED0180E0B3
S11305E00E94ED0181E00E94ED018FE30E94ED0184
S11305F089E20E9415022FEF81EE94E021508040A1
S11306009040E1F700C000000895CF92DF92EF928E
S1130610FF920F931F93CF93DF93EC01D62E8A01A1
S1130620F32EE22EC82EC40E86E30E94150280E843
S11306300E94ED018AE20E94150280E00E94ED0111
S11306408D2D0E94ED0180E00E94ED018D2D0E9410
S1130650ED018BE20E9415028D2F0E94ED018C2F7B
S11306600E94ED01C00FD11F8D2F0E94ED018C2D32
S11306700E94ED018CE20E941502112364F0C0E097
S1130680D0E08F2D0E94ED018E2D0E94ED01219668
S11306900C171D07B4F7DF91CF911F910F91FF90B5
S11306A0EF90DF90CF900895CF92DF92EF92FF9278
S11306B00F931F93CF93DF93D82FD92EC62F7A0190
S11306C0132F022FC62EC40E86E30E94150280EA61
S11306D00E94ED018AE20E9415028D2D0E94ED0117
S11306E08D2F0E94ED018D2D0E94ED018D2F0E9412
S11306F0ED018BE20E94150280E00E94ED018C2F37
S11307000E94ED0180E00E94ED018C2D0E94ED011C
S11307108CE20E9415021E141F0464F4C0E0D0E0B1
S1130720812F0E94ED01802F0E94ED012196CE15AC
S1130730DF05B1F7DF91CF911F910F91FF90EF90FB
S1130740DF90CF9008956F927F928F929F92AF9295
S1130750BF92CF92DF92EF92FF920F931F93CF93AA
S1130760DF937C01EB016A01590138018901061B01
S1130770170B4A01881A990A9301A4010E940503E0
S11307809301A401B501C7010E9405039301A801C7
S1130790BE01C7010E9454039301A801BE01C60112
S11307A00E945403DF91CF911F910F91FF90EF901E
S11307B0DF90CF90BF90AF909F908F907F906F907D
S11307C008958F929F92AF92BF92CF92DF92EF9251
S11307D0FF920F931F93CF93DF93CDB7DEB7A0970C
S11307E0CDBFDEBFC82E7B01D42EB32EA22E912EF8
S11307F0802E86E30E94150280EA0E94ED018AE2BF
S11308000E9415028F2D0E94ED018E2D0E94ED0194
S1130810C7010F96892F0E94ED018FE08E0D0E9473
S1130820ED018BE20E94150280E00E94ED018D2D06
S11308300E94ED0180E00E94ED018FE08D0D0E9489
S1130840ED018C2D0E94F701880F991F82959295D6
S1130850907F9827807F9827FC01E050F04E9E01FE
S11308602F5F3F4F7901805E9F4DD90121913191D6
S11308702D933D93E817F907C9F78CE20E941502FE
S11308806E0131E2C30ED11C21C0F70140815181B8
S1130890002E02C0559547950A94E2F740FF07C021
S11308A08B2D0E94ED018A2D0E94ED0106C0892D39
S11308B00E94ED01882D0E94ED010150110928F7D5
S11308C022E0E20EF11CEC14FD0419F00FE010E03C
S11308D0DCCFA096CDBFDEBFDF91CF911F910F91EA
S11308E0FF90EF90DF90CF90BF90AF909F908F904C
S11308F008958F929F92AF92BF92CF92DF92EF9220
S1130900FF920F931F93CF93DF93FC01EB016A01D6
S1130910590148018081882381F07F019FEFE91A02
S1130920F90A84019501A601BE010E94E1036096C3
S1130930F70181917F018111F4CFDF91CF911F9154
S11309400F91FF90EF90DF90CF90BF90AF909F906A
S11309508F9008950F931F9300E010E02FEF3FEF67
S113096040E050E060E070E080E295E20E947904AB
S11309702FEF3FEF4EE150E067E070E089E295E24F
S11309800E9479042FEF3FEF4EE150E06FE370E0F7
S11309908DE295E20E9479042FEF3FEF4EE150E0A3
S11309A068E870E082E395E20E9479042FEF3FEF5C
S11309B04EE150E069EC70E086E395E20E94790430
S11309C02FEF3FEF4EE150E060E071E08AE395E203
S11309D00E9479042FEF3FEF4BE850E067E070E0AE
S11309E089E295E20E9479042FEF3FEF4BE850E053
S11309F06FE370E08DE295E20E9479042FEF3FEF00
S1130A004BE850E068E870E082E395E20E947904E4
S1130A102FEF3FEF4BE850E069EC70E086E395E29E
S1130A200E9479042FEF3FEF4BE850E060E071E063
S1130A308AE395E20E9479040FEF1FEF23E730E089
S1130A4042E350E062E370E08AE090E00E94A30396
S1130A5023E730E043E750E062E370E08BE490E0AA
S1130A600E94A30323E730E044EB50E062E370E02C
S1130A708CE890E00E94A30323E730E045EF50E0C8
S1130A8062E370E08DEC90E00E94A30323E730E082
S1130A9046E351E062E370E08EE091E00E94A3033C
S1130AA020EE30E042E350E06FE970E08AE090E04D
S1130AB00E94A30320EE30E043E750E06FE970E0CA
S1130AC08BE490E00E94A30320EE30E044EB50E07E
S1130AD06FE970E08CE890E00E94A30320EE30E020
S1130AE045EF50E06FE970E08DEC90E00E94A303C5
S1130AF020EE30E046E351E06FE970E08EE091E0F3
S1130B000E94A3032FEF3FEF4FE351E060E170E059
S1130B1080E090E00E9405032FEF3FEF4FE351E0A8
S1130B206DE770E080E090E00E9405032FEF3FEF57
S1130B304FED50E060E170E08FE390E00E945403D9
S1130B402FEF3FEF4FED50E060E170E08FE790E072
S1130B500E9454032FEF3FEF4FED50E060E170E04F
S1130B6081EC90E00E9454032FEF3FEF4FED50E0F3
S1130B7060E170E081E091E00E9454031F910F91C5
S1130B8008956F927F928F929F92AF92BF92CF926D
S1130B90DF92EF92FF920F931F93CF93DF935C0149
S1130BA03B01EA0149017901E61AF70A6A01C81A08
S1130BB0D90A86E30E94150280EA0E94ED018AE2C6
S1130BC00E9415028B2D0E94ED018A2D0E94ED01D9
S1130BD08D2F0E94ED018C2F0E94ED018BE20E946B
S1130BE0150280E00E94ED01862D0E94ED0180E057
S1130BF00E94ED01882D0E94ED018CE20E941502F5
S1130C00DD20A4F418C0C0E0D0E0812F0E94ED01E3
S1130C10802F0E94ED012196EC16FD06B4F78FEFAC
S1130C20A81AB80ACA14DB041CF405C0A12CB12C00
S1130C30FF204CF7F4CFDF91CF911F910F91FF90DC
S1130C40EF90DF90CF90BF90AF909F908F907F9068
S1130C506F9008958F929F92AF92BF92CF92DF923E
S1130C60EF92FF920F931F93CF93DF937C016B015D
S1130C704A01E8015901A01AB10A1C161D0634F4F0
S1130C8000E018EFAB01B5010E94C105EF9744F4F1
S1130C9000E010E09501A601B401C7010E94C1055E
S1130CA0DF91CF911F910F91FF90EF90DF90CF9044
S1130CB0BF90AF909F908F900895CF93DF93CDB75F
S1130CC0DEB7A597CDBFDEBF8DB79EB7865E91090F
S1130CD08DBF9EBFADB7BEB711967D0180915C25D7
S1130CE090915D250F2EF7E17F2EF02D789EF00177
S1130CF0799EF00D1124EA0FFB1F2FE335E22083C8
S1130D003183108A2BE430E02287338745E550E0B5
S1130D104687578724873587428353830CE810E03E
S1130D20018B128BABE9B0E0A38BB48B16821782D4
S1130D30108611860F2EF2E34F2E512CF02D448293
S1130D4055820F2EF4EBAF2EB12CF02DA58AB68A66
S1130D506C016FEFC61AD60A0F2EFCE48F2EF5E253
S1130D609F2EF02D878A908E7C9CF0017D9CF00D47
S1130D701124EE0DFF1DFF24F394F08A428753875C
S1130D80268737872487358729E130E02283338318
S1130D90018B128BA38BB48B16821782108611865B
S1130DA044825582A58AB68A029680935C259093E4
S1130DB05D250E9435010E9477010E942602E0E22F
S1130DC0F6E080E1858382E08583FE01319686E149
S1130DD0DF011D928A95E9F700E010E020EF30E092
S1130DE040E451E060E070E080E090E00E94C105E2
S1130DF081E30E94AA04612C712C0F2EF1EBCF2EFB
S1130E00FAE0DF2EF02D5E01BBE0AB0EB11C4E010B
S1130E10E5E18E0E911C7E01F4E2EF0EF11C0F2E23
S1130E20F2E74F2EF02D512C312C212CD6018C9130
S1130E308823E4F783E090E00E94BE0190ED980FD0
S1130E409A3028F4682E712CB0E36B1A71088B3237
S1130E50A1F4F301EE0FFF1F81E090E08C0F9D1FC2
S1130E60E80FF91F8081918101968034910514F077
S1130E708FE390E08083918313C08D3289F4F30172
S1130E80EE0FFF1FA1E0B0E0AC0FBD1FEA0FFB1F88
S1130E9080819181019712F480E090E080839183B6
S1130EA081E48F8BFE013196DE0158968081329663
S1130EB08D93EA15FB05D1F782E48D8FF501DE01F0
S1130EC05E96808132968D93E815F905D1F783E417
S1130ED08BA38E01095E1F4F62E070E0F8018191DF
S1130EE08F010E9490010E151F05B1F7F5E06F16F2
S1130EF071042CF02FED332D40EA522D04C0242D23
S1130F00352D43E350E06AE06616710400F5F30101
S1130F108827E250FF4F8F4F0C94B90765E371E0C7
S1130F208FE091E018C064EF70E08EEC90E013C0A5
S1130F3063EB70E08DE890E00EC0642D752D8CE4B9
S1130F4090E009C061E370E08BE090E004C060E0F1
S1130F5070E080E090E0F301EE0FFF1FA1E0B0E04D
S1130F60AC0FBD1FEA0FFB1F008111810E942A06EE
S1130F705DCFEE0FFF1F881F8BBF0790F691E02D0A
S1090F801994F894FFCF60
S1130F8600000000F00F38185818581898189818C8
S1130F9618191819181A181A181CF00F000000004E
S1130FA60000000080038007800180018001800129
S1130FB68001800180018001800180010000000021
S1130FC600000000F00F18181818180038007000F8
S1130FD6E0018007000E00180018F81F000000004A
S1130FE600000000F00F1818181818001800F00375
S1130FF618001800180018181818F00F0000000040
S1131006000000007000F000B00130033006300C20
S11310163018F81F300030003000300000000000A7
S113102600000000F81F0018001800180018F00F40
S113103618001800180018181818F00F00000000FF
S113104600000000F00F1818181800180018F01FF8
S113105618181818181818181818F00F0000000097
S113106600000000F81F1818180030003000600057
S11310766000C000C0008001800180010000000003
S113108600000000F00F1818181818181818F00F98
S113109618181818181818181818F00F0000000057
S11310A600000000F00F1818181818181818F80F70
S11310B618001800180018181818F00F000000007F
S11310C600000000E007F00F181818181818F81F89
S11310D618181818181818181818181800000000E6
S11310E600000000F01F1818181818181818F01F18
S11310F618181818181818181818F01F00000000E7
S113110600000000F00F181818180018001800182E
S113111600180018001818181818F00F000000001E
S113112600000000E01F30181818181818181818AE
S113113618181818181818183018E01F000000009E
S113114600000000F81F0018001800180018E01F1F
S113115600180018001800180018F81F00000000F6
S113116600000000F81F0018001800180018C01F1F
S113117600180018001800180018001800000000D5
S113118600000000E00F1818181800180018381886
S113119618181818181818181818E80F000000005E
S11311A60000000018181818181818181818F81F2E
S11311B61818181818181818181818180000000005
S11311C6000000008001800180018001800180010F
S11311D680018001800180018001800100000000FF
S11311E600000000300030003000300030003000D5
S11311F630003000301830183018E00700000000C6
S11312060000000030183018301830182018C01F9D
S11312163018301830183018301830180000000014
S11312260000000000180018001800180018001824
S113123600180018001800180018F81F0000000015
S1131246000000001818381C781ED81B98191818A6
S11312561818181818181818181818180000000064
S1131266000000001818181C181E181A181B9819C4
S11312769819D81858187818381818180000000043
S113128600000000F00F1818181818181818181865
S113129618181818181818181818F00F0000000055
S11312A600000000F01F1818181818181818F01F56
S11312B60018001800180018001800180000000094
S11312C600000000F00F1818181818181818181825
S11312D61818181818189819D818F00F300018008C
S11312E600000000F01F1818181818181818F01F16
S11312F618181818181818181818181800000000C4
S113130600000000F00F1818181800180018F00F45
S113131618001800180018181818F00F000000001C
S113132600000000F81F8001800180018001800117
S1131336800180018001800180018001000000009D
S11313460000000018181818181818181818181873
S113135618181818181818181818F00F0000000094
S1131366000000001818181818181818300C300C3B
S1131376300C700E60066006C00380010000000099
S11313860000000018181818181818181818181833
S113139618189819D81B781E381C1008000000006D
S11313A6000000001818381C700E6006C003800187
S11313B68001C0036006700E381C18180000000077
S11313C60000000018181818381C700E6006C003B8
S11313D680018001800180018001800100000000FD
S11313E600000000F81F1800180030006000C0015B
S11313F680030006000C00180018F81F0000000007
S113140600000000800180018001800180018001CC
S1131416800180018001000080018001000000003D
S113142600000000600660066006F81FF81F6006EC
S11314366006F81FF81F60066006600600000000DC
S11314460000000000000000000000000000000092
S11314560000000000000000800180010000000080
S113146600000000F80F0C180C180C000C00F80013
S1131476C00180018001000080018001000000009D
S11314860000000000000000000000000000000052
S11314960000000000000000000000000000000042
S11314A6505245534554203100564F4C004741494C
S11314B64E004C4F57004D494400484947480048A0
S11314C6454156592044495354203100434C454123
S10F14D64E2047524F4F56452031000075
S9030000FC
