:100000000C94FE000C941F010C941F010C941F0112
:100010000C941F010C941F010C941F010C941F01E0
:100020000C941F010C941F010C941F010C941F01D0
:100030000C941F010C941F010C941F010C941F01C0
:100040000C941F010C941F010C941F010C941F01B0
:100050000C941F010C941F010C941F010C941F01A0
:100060000C941F010C941F010C941F010C941F0190
:100070000C941F010C941F010C941F010C941F0180
:100080000C941F010C941F010C941F010C941F0170
:100090000C941F010C941F010C941F010C941F0160
:1000A0000C941F010C941F010C941F010C941F0150
:1000B0000C941F010C941F010C941F010C941F0140
:1000C0000C941F010C941F010C941F010C941F0130
:1000D0000C941F010C941F010C941F010C941F0120
:1000E0000C941F010C941F010C941F010C941F0110
:1000F0000C941F010C941F010C941F010C941F0100
:100100000C941F010C941F010C941F010C941F01EF
:100110000C941F010C941F010C941F010C941F01DF
:100120000C941F010C941F010C941F010C941F01CF
:100130000C941F010C941F010C941F010C941F01BF
:100140000C941F010C941F010C941F010C941F01AF
:100150000C941F010C941F010C941F010C941F019F
:100160000C941F010C941F010C941F010C941F018F
:100170000C941F010C941F010C941F010C941F017F
:100180000C941F010C941F010C941F010C941F016F
:100190000C941F010C941F010C941F010C941F015F
:1001A0000C941F010C941F010C941F010C941F014F
:1001B0000C941F010C941F010C941F010C941F013F
:1001C0000C941F010C941F010C941F010C941F012F
:1001D0000C941F010C941F010C941F010C941F011F
:1001E0000C941F010C941F010C941F010C941F010F
:1001F0000C941F010C941F010C941F0111241FBEAD
:10020000CFEFCDBFDFE5DEBF00E00CBF15E2A0E021
:10021000B0E2E8EBF8E000E00BBF02C007900D92FF
:10022000AC33B107D9F725E2ACE3B5E201C01D92CA
:10023000AE33B207E1F70E94B8030C945A040C9451
:10024000000082E080935000E0E5F0E0818181FFD2
:10025000FDCF88ED84BFE0E4F0E0118284BF81E04F
:100260008083A0E0B6E088EF8C93E0E0F2E01082BB
:100270001182128214961C92E0E2F6E08FEF8083E6
:10028000A0E4B2E01C9211961C92119712961C9257
:10029000108A118A148A158A168A148210924006CE
:1002A0009BEB9093600690938006E0EAF6E08083F3
:1002B00014822FEF87EA91E6215080409040E1F7C9
:1002C00000C000000895E0EAF9E02CE0268390E405
:1002D0009783138288E1848333E03583E0EBF9E090
:1002E00026839783138284833583E0EAFAE02683AA
:1002F00097831382848332E03583E0EBFAE0268330
:10030000978313828483358308958130910591F01A
:100310001CF4892B39F026C08230910599F003979F
:10032000C9F020C0E1EAF9E080818823ECF78091F0
:10033000A0090895E1EBF9E080818823ECF7809132
:10034000B0090895E1EAFAE080818823ECF7809112
:10035000A00A0895E1EBFAE080818823ECF7809110
:10036000B00A089580E00895E0E2F6E090E2958317
:100370008093A40680E4868385830895282F30E047
:100380009FEB980F9A3118F4275331090BC090ED69
:10039000980F9A3018F42053310904C0803211F4B8
:1003A00028E230E0C9010895882329F090E0000098
:1003B0009F5F9813FCCF0895CF93DF93C0E2D6E000
:1003C00090E29E838093A4068AE00E94D40180E498
:1003D0008E838D83DF91CF91089588E20E94DC01A6
:1003E00081E10E94DC0186E30E94DC0180E80E943A
:1003F000B4018AE30E94DC0185E50E94B40182EB2E
:100400000E94DC018CE00E94B4018CE00E94B401E7
:1004100080E00E94B40183E30E94B40183E30E9460
:10042000B40187EB0E94DC0185E30E94B4018BEBF1
:100430000E94DC018BE20E94B40180EC0E94DC018E
:100440008CE20E94B40182EC0E94DC0181E00E94F7
:10045000B4018FEF0E94B40183EC0E94DC0181E1C2
:100460000E94B40184EC0E94DC0180E20E94B4018D
:1004700086EC0E94DC018FE00E94B40180ED0E94B6
:10048000DC0184EA0E94B40181EA0E94B40180EE9A
:100490000E94DC0180ED0E94B40180E00E94B40162
:1004A00085E00E94B4018EE00E94B40185E10E94C3
:1004B000B4018DE00E94B40187E30E94B40183E49B
:1004C0000E94B40187E40E94B40189E00E94B40153
:1004D00085E10E94B40182E10E94B40186E10E949C
:1004E000B40189E10E94B40181EE0E94DC0180ED3B
:1004F0000E94B40180E00E94B40185E00E94B40132
:100500008DE00E94B4018CE00E94B40186E00E945C
:10051000B4018DE20E94B40184E40E94B40180E43D
:100520000E94B4018EE00E94B4018CE10E94B401EB
:1005300088E10E94B40186E10E94B40189E10E9431
:10054000B4018AE20E94DC0180E00E94B40180E0F4
:100550000E94B40180E00E94B4018FEE0E94B401B9
:100560008BE20E94DC0180E00E94B40180E00E94E6
:10057000B40181E00E94B4018FE30E94B40189E2DA
:100580000E94DC012FEF81EE94E0215080409040EA
:10059000E1F700C000000895CF92DF92EF92FF9242
:1005A0000F931F93CF93DF93092F182F86E30E9499
:1005B000DC0180E80E94B4018AE20E94DC0180E054
:1005C0000E94B40180E00E94B40180E00E94B40166
:1005D0008FEE0E94B4018BE20E94DC0180E00E9459
:1005E000B40180E00E94B40181E00E94B4018FE375
:1005F0000E94B4018CE20E94DC016894EE24E6F8CB
:10060000FF24F3940F2EF0EFCF2EF02DD12C0CC041
:10061000802F0E94B401812F0E94B4012197C1F75D
:1006200081E0E81AF10819F0CC2DDD2DF1CFDF9132
:10063000CF911F910F91FF90EF90DF90CF90089591
:100640008F929F92AF92BF92CF92DF92EF92FF92E2
:100650000F931F93CF93DF93CDB7DEB7A097CDBF96
:10066000DEBFC82E7B01D42EB32EA22E912E802E5B
:1006700086E30E94DC0180EA0E94B4018AE20E94C3
:10068000DC018F2D0E94B4018E2D0E94B401C701A0
:100690000F96892F0E94B4018FE08E0D0E94B40145
:1006A0008BE20E94DC0180E00E94B4018D2D0E944B
:1006B000B40180E00E94B4018FE08D0D0E94B4016E
:1006C0008C2D0E94BE01880F991F82959295907F74
:1006D0009827807F9827FC01E050F04E9E012F5F05
:1006E0003F4F7901805E9F4DD901219131912D932A
:1006F0003D93E817F907C9F78CE20E94DC016E010F
:1007000031E2C30ED11C21C0F70140815181002E7E
:1007100002C0559547950A94E2F740FF07C08B2D1C
:100720000E94B4018A2D0E94B40106C0892D0E9446
:10073000B401882D0E94B4010150110928F722E06C
:10074000E20EF11CEC14FD0419F00FE010E0DCCF18
:10075000A096CDBFDEBFDF91CF911F910F91FF908B
:10076000EF90DF90CF90BF90AF909F908F900895C3
:10077000CF93DF93CDB7DEB78DB79EB7865E910975
:100780008DBF9EBFEDB7FEB731967F0180913C25AE
:1007900090913D250F2EF7E19F2EF02D989EF001B0
:1007A000999EF00D1124EE0DFF1D20E235E220830D
:1007B0003183108A2BE430E02287338745E550E00F
:1007C0004687578724873587428353830CE810E098
:1007D000018B128BABE9B0E0A38BB48B168217822E
:1007E000108611860F2EF2E34F2E512CF02D4482ED
:1007F00055820F2EF4EBAF2EB12CF02DA58AB68AC0
:100800006C016FEFC61AD60A0F2EFDE26F2EF5E2CD
:100810007F2EF02D678A708E9C9CF0019D9CF00DC0
:100820001124EE0DFF1DFF24F394F08A42875387B5
:10083000268737872487358729E130E02283338371
:10084000018B128BA38BB48B1682178210861186B4
:1008500044825582A58AB68A029680933C2590935D
:100860003D250E9421010E9463010E94ED01E0E20A
:10087000F6E080E1858382E085838FEF9FEF0E9421
:10088000CC020F2EF1EBEF2EFAE0FF2EF02DF70148
:1008900080818823E4F783E090E00E9485010FEFD8
:1008A0001FEF20E030E042E350E062E370E00E949E
:0808B0002003EDCFF894FFCF07
:1008B80000000000F00F38185818581898189818A1
:1008C80018191819181A181A181CF00F0000000027
:1008D8000000000080038007800180018001800102
:1008E80080018001800180018001800100000000FA
:1008F80000000000F00F18181818180038007000D1
:10090800E0018007000E00180018F81F0000000022
:1009180000000000F00F1818181818001800F0034D
:1009280018001800180018181818F00F0000000018
:10093800000000007000F000B00130033006300CF9
:100948003018F81F30003000300030000000000080
:1009580000000000F81F0018001800180018F00F19
:1009680018001800180018181818F00F00000000D8
:1009780000000000F00F1818181800180018F01FD1
:1009880018181818181818181818F00F0000000070
:1009980000000000F81F1818180030003000600030
:1009A8006000C000C00080018001800100000000DC
:1009B80000000000F00F1818181818181818F00F71
:1009C80018181818181818181818F00F0000000030
:1009D80000000000F00F1818181818181818F80F49
:1009E80018001800180018181818F00F0000000058
:1009F80000000000E007F00F181818181818F81F62
:100A080018181818181818181818181800000000BE
:100A180000000000F01F1818181818181818F01FF0
:100A280018181818181818181818F01F00000000BF
:100A380000000000F00F1818181800180018001807
:100A480000180018001818181818F00F00000000F7
:100A580000000000E01F3018181818181818181887
:100A680018181818181818183018E01F0000000077
:100A780000000000F81F0018001800180018E01FF8
:100A880000180018001800180018F81F00000000CF
:100A980000000000F81F0018001800180018C01FF8
:100AA80000180018001800180018001800000000AE
:100AB80000000000E00F181818180018001838185F
:100AC80018181818181818181818E80F0000000037
:100AD8000000000018181818181818181818F81F07
:100AE80018181818181818181818181800000000DE
:100AF80000000000800180018001800180018001E8
:100B080080018001800180018001800100000000D7
:100B180000000000300030003000300030003000AD
:100B280030003000301830183018E007000000009E
:100B38000000000030183018301830182018C01F76
:100B480030183018301830183018301800000000ED
:100B580000000000001800180018001800180018FD
:100B680000180018001800180018F81F00000000EE
:100B7800000000001818381C781ED81B981918187F
:100B8800181818181818181818181818000000003D
:100B9800000000001818181C181E181A181B98199D
:100BA8009819D8185818781838181818000000001C
:100BB80000000000F00F181818181818181818183E
:100BC80018181818181818181818F00F000000002E
:100BD80000000000F01F1818181818181818F01F2F
:100BE800001800180018001800180018000000006D
:100BF80000000000F00F18181818181818181818FE
:100C08001818181818189819D818F00F3000180064
:100C180000000000F01F1818181818181818F01FEE
:100C2800181818181818181818181818000000009C
:100C380000000000F00F1818181800180018F00F1E
:100C480018001800180018181818F00F00000000F5
:100C580000000000F81F80018001800180018001F0
:100C68008001800180018001800180010000000076
:100C7800000000001818181818181818181818184C
:100C880018181818181818181818F00F000000006D
:100C9800000000001818181818181818300C300C14
:100CA800300C700E60066006C00380010000000072
:100CB800000000001818181818181818181818180C
:100CC80018189819D81B781E381C10080000000046
:100CD800000000001818381C700E6006C003800160
:100CE8008001C0036006700E381C18180000000050
:100CF8000000000018181818381C700E6006C00391
:100D080080018001800180018001800100000000D5
:100D180000000000F81F1800180030006000C00133
:100D280080030006000C00180018F81F00000000DF
:100D380000000000800180018001800180018001A5
:100D48008001800180010000800180010000000016
:100D580000000000600660066006F81FF81F6006C5
:100D68006006F81FF81F60066006600600000000B5
:100D7800000000000000000000000000000000006B
:100D88000000000000000000800180010000000059
:100D980000000000F80F0C180C180C000C00F800EC
:100DA800C001800180010000800180010000000076
:100DB800000000000000000000000000000000002B
:100DC800000000000000000000000000000000001B
:100DD80048454156592044495354203100434C4515
:0C0DE800414E2047524F4F56452031002D
:00000001FF
