S01100004D61696E626F6172642E7372656386
S11300000C94FE000C941F010C941F010C941F010E
S11300100C941F010C941F010C941F010C941F01DC
S11300200C941F010C941F010C941F010C941F01CC
S11300300C941F010C941F010C941F010C941F01BC
S11300400C941F010C941F010C941F010C941F01AC
S11300500C941F010C941F010C941F010C941F019C
S11300600C941F010C941F010C941F010C941F018C
S11300700C941F010C941F010C941F010C941F017C
S11300800C941F010C941F010C941F010C941F016C
S11300900C941F010C941F010C941F010C941F015C
S11300A00C941F010C941F010C941F010C941F014C
S11300B00C941F010C941F010C941F010C941F013C
S11300C00C941F010C941F010C941F010C941F012C
S11300D00C941F010C941F010C941F010C941F011C
S11300E00C941F010C941F010C941F010C941F010C
S11300F00C941F010C941F010C941F010C941F01FC
S11301000C941F010C941F010C941F010C941F01EB
S11301100C941F010C941F010C941F010C941F01DB
S11301200C941F010C941F010C941F010C941F01CB
S11301300C941F010C941F010C941F010C941F01BB
S11301400C941F010C941F010C941F010C941F01AB
S11301500C941F010C941F010C941F010C941F019B
S11301600C941F010C941F010C941F010C941F018B
S11301700C941F010C941F010C941F010C941F017B
S11301800C941F010C941F010C941F010C941F016B
S11301900C941F010C941F010C941F010C941F015B
S11301A00C941F010C941F010C941F010C941F014B
S11301B00C941F010C941F010C941F010C941F013B
S11301C00C941F010C941F010C941F010C941F012B
S11301D00C941F010C941F010C941F010C941F011B
S11301E00C941F010C941F010C941F010C941F010B
S11301F00C941F010C941F010C941F0111241FBEA9
S1130200CFEFCDBFDFE5DEBF00E00CBF10E2A0E022
S1130210B0E2EEE4F6E000E00BBF02C007900D92FE
S1130220AC31B107D9F720E2ACE1B0E201C01D92D4
S1130230AE31B207E1F70E949C020C9425030C94A2
S1130240000082E080935000E0E5F0E0818181FFCE
S1130250FDCF88ED84BFE0E4F0E0118284BF81E04B
S11302608083A0E0B6E088EF8C93E0E0F2E01082B7
S11302701182128214961C92E0E2F6E08FEF8083E2
S1130280A0E4B2E01C9211961C92119712961C9253
S1130290108A118A148A158A168A148210924006CA
S11302A09BEB9093600690938006E0EAF6E08083EF
S11302B014822FEF87EA91E6215080409040E1F7C5
S11302C000C000000895E0EAF9E02CE0268390E401
S11302D09783138288E1848333E03583E0EBF9E08C
S11302E026839783138284833583E0EAFAE02683A6
S11302F097831382848332E03583E0EBFAE026832C
S113030097831382848335830895E0E2F6E090E2D4
S113031095838093A40680E4868385830895CF9390
S1130320DF93D0E00CC08D2F0E9485018C2F0E949A
S11303308501CF5FC03FB9F7DC5FD03511F0C0E075
S1130340F2CFDF91CF910895882329F090E0000047
S11303509F5F9813FCCF0895CF93DF93C0E2D6E05C
S113036090E29E838093A4068AE00E94A40180E424
S11303708E838D83DF91CF91089588E20E94AC0132
S113038081E10E94AC0186E30E94AC0180E80E94F6
S113039085018AE30E94AC0185E50E94850182EB18
S11303A00E94AC018CE00E9485018CE00E948501D2
S11303B080E00E94850183E30E94850183E30E941B
S11303C0850187EB0E94AC0185E30E9485018BEBDC
S11303D00E94AC018BE20E94850180EC0E94AC017A
S11303E08CE20E94850182EC0E94AC0181E00E94B3
S11303F085018FEF0E94850183EC0E94AC0181E1AD
S11304000E94850184EC0E94AC0180E20E94850177
S113041086EC0E94AC018FE00E94850180ED0E9471
S1130420AC0184EA0E94850181EA0E94850180EE84
S11304300E94AC0180ED0E94850180E00E9485014C
S113044085E00E9485018EE00E94850185E10E947D
S113045085018DE00E94850187E30E94850183E484
S11304600E94850187E40E94850189E00E9485013C
S113047085E10E94850182E10E94850186E10E9456
S1130480850189E10E94850181EE0E94AC0180ED25
S11304900E94850180E00E94850185E00E9485011B
S11304A08DE00E9485018CE00E94850186E00E9417
S11304B085018DE20E94850184E40E94850180E427
S11304C00E9485018EE00E9485018CE10E948501D5
S11304D088E10E94850186E10E94850189E10E94EC
S11304E085018AE20E94AC0180E00E94850180E0DF
S11304F00E94850180E00E9485018FEE0E948501A3
S11305008BE20E94AC0180E00E94850180E00E94A1
S1130510850181E00E9485018FE30E94850189E2C3
S11305200E94AC012FEF81EE94E021508040904076
S1130530E1F700C000000895CF93DF93CDB7DEB795
S11305408DB79EB7865E91098DBF9EBF01967C01D3
S113055080911C2090911D200F2EF7E19F2EF02DED
S1130560989EF001999EF00D1124EE0DFF1D20E0E0
S113057030E220833183108A2BE430E022873387F2
S113058045E550E046875787248735874283538360
S11305900CE810E0018B128BABE9B0E0A38BB48BB9
S11305A016821782108611860F2EF2E34F2E512CDD
S11305B0F02D448255820F2EF4EBAF2EB12CF02D8A
S11305C0A58AB68A6C016FEFC61AD60A0F2EFDE013
S11305D06F2EF0E27F2EF02D678A708E9C9CF001C6
S11305E09D9CF00D1124EE0DFF1DFF24F394F08A61
S11305F042875387268737872487358729E130E068
S113060022833383018B128BA38BB48B16821782C4
S11306101086118644825582A58AB68A02968093F2
S11306201C2090931D200E9421010E9463010E94BE
S1130630BD01E0E2F6E080E1858382E085838CE21F
S11106400E94AC010E948F01FDCFF894FFCF01
S113064E48454156592044495354203100434C45A2
S10F065E414E2047524F4F5645203100BA
S9030000FC
