S01100004D61696E626F6172642E7372656386
S11300000C94FE000C940A010C940A010C940A014D
S11300100C940A010C940A010C940A010C940A0130
S11300200C940A010C940A010C940A010C940A0120
S11300300C940A010C940A010C940A010C940A0110
S11300400C940A010C940A010C940A010C940A0100
S11300500C940A010C940A010C940A010C940A01F0
S11300600C940A010C940A010C940A010C940A01E0
S11300700C940A010C940A010C940A010C940A01D0
S11300800C940A010C940A010C940A010C940A01C0
S11300900C940A010C940A010C940A010C940A01B0
S11300A00C940A010C940A010C940A010C940A01A0
S11300B00C940A010C940A010C940A010C940A0190
S11300C00C940A010C940A010C940A010C940A0180
S11300D00C940A010C940A010C940A010C940A0170
S11300E00C940A010C940A010C940A010C940A0160
S11300F00C940A010C940A010C940A010C940A0150
S11301000C940A010C940A010C940A010C940A013F
S11301100C940A010C940A010C940A010C940A012F
S11301200C940A010C940A010C940A010C940A011F
S11301300C940A010C940A010C940A010C940A010F
S11301400C940A010C940A010C940A010C940A01FF
S11301500C940A010C940A010C940A010C940A01EF
S11301600C940A010C940A010C940A010C940A01DF
S11301700C940A010C940A010C940A010C940A01CF
S11301800C940A010C940A010C940A010C940A01BF
S11301900C940A010C940A010C940A010C940A01AF
S11301A00C940A010C940A010C940A010C940A019F
S11301B00C940A010C940A010C940A010C940A018F
S11301C00C940A010C940A010C940A010C940A017F
S11301D00C940A010C940A010C940A010C940A016F
S11301E00C940A010C940A010C940A010C940A015F
S11301F00C940A010C940A010C940A0111241FBEE8
S1130200CFEFCDBFDFE5DEBF00E00CBF0E94C90128
S11302100C9479020C940000E0E5F0E088E080831F
S113022080EC8283818183FFFDCF88ED84BFE0E48D
S1130230F0E0118284BF83E0808388EF809300061E
S1130240E0E0F2E0108211821282E0E2F6E09FEF39
S11302509083A0E4B2E01C9211961C92119712961E
S11302601C9288E3808B818B848B858B868B109288
S113027040068BEB80936006809380069093A006E3
S11302802FEF8FE493EC215080409040E1F700C0C1
S113029000000895E0EAF9E02CE0268390E49783D7
S11302A0138288E1848333E03583E0EBF9E026832D
S11302B09783138284833583E0EAFAE02683978365
S11302C01382848332E03583E0EBFAE0268397835C
S11302D013828483358308956130710599F01CF489
S11302E0672B41F0089562307105A1F06330710508
S11302F0C9F00895E1EAF9E0908195FFFDCF80937C
S1130300A0090895E1EBF9E0908195FFFDCF80937A
S1130310B0090895E1EAFAE0908195FFFDCF80935A
S1130320A00A0895E1EBFAE0908195FFFDCF809358
S1130330B00A08958130910591F01CF4892B39F0AD
S113034026C08230910599F00397C9F020C0E1EAF4
S1130350F9E080818823ECF78091A0090895E1EB0E
S1130360F9E080818823ECF78091B0090895E1EAEF
S1130370FAE080818823ECF78091A00A0895E1EBEC
S1130380FAE080818823ECF78091B00A089580E038
S11303900895CF93DF93CDB7DEB78DB79EB7825D57
S11303A091098DBF9EBFEDB7FEB7319616862BE43B
S11303B030E02087318785E590E084879587228720
S11303C03387ADB7BEB711968D939C9312978CE883
S11303D090E08787908B8BE990E0818B928B1482DD
S11303E015821682178282E390E08283938384EBE2
S11303F090E0838B948B0E940C010E944A01712C23
S1130400612C0F2EF1EAAF2EF9E0BF2EF02D0F2E46
S1130410F1EBCF2EF9E0DF2EF02D0F2EF1EAEF2EC7
S1130420FAE0FF2EF02D01EB1AE00F2EF0E28F2EF2
S1130430F6E09F2EF02D6894332431F80F2EF2E16C
S11304404F2EF02D6894552454F863E070E081E455
S11304500E946C0161E070E082E40E946C01F5018D
S11304608081882324F480E090E00E949A01D601E0
S11304708C91882344F481E090E00E949A018234B4
S113048011F466246394F7018081882324F482E0C4
S113049090E00E949A01D8018C91882334F483E07F
S11304A090E00E949A01813409F1662059F0772086
S11304B029F0F4014482772473940EC0D401149675
S11304C05C920AC0772029F0F40134827724739473
S11304D003C0D40114961C92BFEFE3ECF9E0B150D1
S11304E0E040F040E1F700C00000AFCF6110E1CF81
S10904F0EBCFF894FFCFEE
S9030000FC
