S01100004D61696E626F6172642E7372656386
S11300000C9412010C9433010C9433010C943301BD
S11300100C9433010C9433010C9433010C9433018C
S11300200C9433010C9433010C9433010C9433017C
S11300300C9433010C9433010C9433010C9433016C
S11300400C9433010C9433010C9433010C9433015C
S11300500C9433010C9433010C9433010C9433014C
S11300600C9433010C9433010C9433010C9433013C
S11300700C9433010C9433010C9433010C9433012C
S11300800C9433010C9433010C9433010C9433011C
S11300900C9433010C9433010C9433010C9433010C
S11300A00C9433010C9433010C9433010C943301FC
S11300B00C9433010C9433010C9433010C943301EC
S11300C00C9433010C9433010C9433010C943301DC
S11300D00C9433010C9433010C9433010C943301CC
S11300E00C9433010C9433010C9433010C943301BC
S11300F00C9433010C9433010C9433010C943301AC
S11301000C9433010C9433010C9433010C9433019B
S11301100C9433010C9433010C9433010C9433018B
S11301200C9433010C9433010C9433010C9433017B
S11301300C9433010C9433010C9433010C9433016B
S11301400C9433010C9433010C9433010C9433015B
S11301500C9433010C9433010C9433010C9433014B
S11301600C9433010C9433010C9433010C9433013B
S11301700C9433010C9433010C9433010C9433012B
S11301800C9433010C9433010C9433010C9433011B
S11301900C9433010C9433010C9433010C9433010B
S11301A00C9433010C9433010C9433010C943301FB
S11301B00C9433010C9433010C9433010C943301EB
S11301C00C9433010C9433010C9433010C943301DB
S11301D00C9433010C9433010C9433010C943301CB
S11301E00C9433010C9433010C9433010C943301BB
S11301F00C9433010C9433010C9433014B075007D6
S113020055075A075F074B07500755075A075F07FB
S11302100C945A070C945F070C9455070C944B07E5
S11302200C94500711241FBECFEFCDBFDFE5DEBF16
S113023000E00CBF15E2A0E0B0E2E0E0FFE000E087
S11302400BBF02C007900D92AC35B107D9F725E278
S1130250ACE5B5E201C01D92AE35B207E1F70E94EC
S113026048060C947E070C94000082E080935000B2
S1130270E0E5F0E0818181FFFDCF88ED84BFE0E41B
S1130280F0E0118284BF81E08083A0E0B6E088EFD3
S11302908C93E0E0F2E010821182128214961C9298
S11302A0E0E2F6E08FEF8083A0E4B2E01C921196C6
S11302B01C92119712961C92108A118A148A158A1C
S11302C0168A1482109240069BEB909360069093DA
S11302D08006E0EAF6E0808314822FEF87EA91E655
S11302E0215080409040E1F700C000000895E0EA0A
S11302F0F9E02CE0268390E49783138288E18483D9
S113030033E03583E0EBF9E026839783138284831B
S11303103583E0EAFAE0268397831382848332E00C
S11303203583E0EBFAE02683978313828483358355
S113033008958130910591F01CF4892B39F026C081
S11303408230910599F00397C9F020C0E1EAF9E001
S113035080818823ECF78091A0090895E1EBF9E00E
S113036080818823ECF78091B0090895E1EAFAE0EE
S113037080818823ECF78091A00A0895E1EBFAE0EC
S113038080818823ECF78091B00A089580E0089575
S1130390E0E2F6E090E295838093A40680E486830D
S11303A085830895282F30E09FEB980F9A3118F435
S11303B0275331090BC090ED980F9A3018F420534D
S11303C0310904C0803211F428E230E0C9010895F3
S11303D0882329F090E000009F5F9813FCCF0895D4
S11303E0CF93DF93C0E2D6E090E29E838093A4068D
S11303F08AE00E94E80180E48E838D83DF91CF91AF
S1130400089588E20E94F00181E10E94F00186E3F0
S11304100E94F00180E80E94C8018AE30E94F00172
S113042085E50E94C80182EB0E94F0018CE00E94E5
S1130430C8018CE00E94C80180E00E94C80183E3E7
S11304400E94C80183E30E94C80187EB0E94F00167
S113045085E30E94C8018BEB0E94F0018BE20E94AD
S1130460C80180EC0E94F0018CE20E94C80182EC79
S11304700E94F00181E00E94C8018FEF0E94C80130
S113048083EC0E94F00181E10E94C80184EC0E9487
S1130490F00180E20E94C80186EC0E94F0018FE026
S11304A00E94C80180ED0E94F00184EA0E94C80104
S11304B081EA0E94C80180EE0E94F00180ED0E9452
S11304C0C80180E00E94C80185E00E94C8018EE056
S11304D00E94C80185E10E94C8018DE00E94C80104
S11304E087E30E94C80183E40E94C80187E40E9454
S11304F0C80189E00E94C80185E10E94C80182E127
S11305000E94C80186E10E94C80189E10E94C801D5
S113051081EE0E94F00180ED0E94C80180E00E94FB
S1130520C80185E00E94C8018DE00E94C8018CE0EA
S11305300E94C80186E00E94C8018DE20E94C801A1
S113054084E40E94C80180E40E94C8018EE00E94F5
S1130550C8018CE10E94C80188E10E94C80186E1BB
S11305600E94C80189E10E94C8018AE20E94F00148
S113057080E00E94C80180E00E94C80180E00E94DF
S1130580C8018FEE0E94C8018BE20E94F00180E056
S11305900E94C80180E00E94C80181E00E94C80155
S11305A08FE30E94C80189E20E94F0012FEF81EEDF
S11305B094E0215080409040E1F700C0000008958D
S11305C0CF92DF92EF92FF920F931F93CF93DF931B
S11305D0EC01D62E8A01F32EE22EC82EC40E86E339
S11305E00E94F00180E80E94C8018AE20E94F001A2
S11305F080E00E94C8018D2D0E94C80180E00E9405
S1130600C8018D2D0E94C8018BE20E94F0018D2F3C
S11306100E94C8018C2F0E94C801C00FD11F8D2FCA
S11306200E94C8018C2D0E94C8018CE20E94F00136
S1130630112364F0C0E0D0E08F2D0E94C8018E2DFC
S11306400E94C80121960C171D07B4F7DF91CF91C2
S11306501F910F91FF90EF90DF90CF900895CF926C
S1130660DF92EF92FF920F931F93CF93DF93D82FD4
S1130670D92EC62F7A01132F022FC62EC40E86E35D
S11306800E94F00180EA0E94C8018AE20E94F001FF
S11306908D2D0E94C8018D2F0E94C8018D2D0E94AE
S11306A0C8018D2F0E94C8018BE20E94F00180E0F6
S11306B00E94C8018C2F0E94C80180E00E94C801DA
S11306C08C2D0E94C8018CE20E94F0011E141F04AC
S11306D064F4C0E0D0E0812F0E94C801802F0E9402
S11306E0C8012196CE15DF05B1F7DF91CF911F9197
S11306F00F91FF90EF90DF90CF9008956F927F92CB
S11307008F929F92AF92BF92CF92DF92EF92FF921D
S11307100F931F93CF93DF937C01EB016A0159017F
S113072038018901061B170B4A01881A990A93019B
S1130730A4010E94E0029301A401B501C7010E9433
S1130740E0029301A801BE01C7010E942F03930197
S1130750A801BE01C6010E942F03DF91CF911F9112
S11307600F91FF90EF90DF90CF90BF90AF909F904C
S11307708F907F906F9008958F929F92AF92BF92C7
S1130780CF92DF92EF92FF920F931F93CF93DF9359
S1130790CDB7DEB7A097CDBFDEBFC82E7B01D42E68
S11307A0B32EA22E912E802E86E30E94F00180EAC1
S11307B00E94C8018AE20E94F0018F2D0E94C801A4
S11307C08E2D0E94C801C7010F96892F0E94C8016F
S11307D08FE08E0D0E94C8018BE20E94F00180E040
S11307E00E94C8018D2D0E94C80180E00E94C801AA
S11307F08FE08D0D0E94C8018C2D0E94D201880FBC
S1130800991F82959295907F9827807F9827FC0165
S1130810E050F04E9E012F5F3F4F7901805E9F4D67
S1130820D901219131912D933D93E817F907C9F727
S11308308CE20E94F0016E0131E2C30ED11C21C092
S1130840F70140815181002E02C0559547950A94C5
S1130850E2F740FF07C08B2D0E94C8018A2D0E9439
S1130860C80106C0892D0E94C801882D0E94C801B4
S11308700150110928F722E0E20EF11CEC14FD04EA
S113088019F00FE010E0DCCFA096CDBFDEBFDF9102
S1130890CF911F910F91FF90EF90DF90CF90BF9079
S11308A0AF909F908F9008958F929F92AF92BF9236
S11308B0CF92DF92EF92FF920F931F93CF93DF9328
S11308C0FC01EB016A01590148018081882381F010
S11308D07F019FEFE91AF90A84019501A601BE017F
S11308E00E94BC036096F70181917F018111F4CFCE
S11308F0DF91CF911F910F91FF90EF90DF90CF90F8
S1130900BF90AF909F908F9008950F931F9300E036
S113091010E02FEF3FEF40E050E060E070E080E255
S113092095E20E9454042FEF3FEF4EE150E067E060
S113093070E089E295E20E9454042FEF3FEF4EE10C
S113094050E06FE370E08DE295E20E9454042FEFD3
S11309503FEF4EE150E068E870E082E395E20E94E8
S113096054042FEF3FEF4EE150E069EC70E086E372
S113097095E20E9454042FEF3FEF4EE150E060E017
S113098071E08AE395E20E9454042FEF3FEF4BE8B5
S113099050E067E070E089E295E20E9454042FEF92
S11309A03FEF4BE850E06FE370E08DE295E20E9488
S11309B054042FEF3FEF4BE850E068E870E082E327
S11309C095E20E9454042FEF3FEF4BE850E069ECAE
S11309D070E086E395E20E9454042FEF3FEF4BE86A
S11309E050E060E071E08AE395E20E9454040FEF66
S11309F01FEF23E730E042E350E062E370E08AE077
S1130A0090E00E947E0323E730E043E750E062E396
S1130A1070E08BE490E00E947E0323E730E044EB37
S1130A2050E062E370E08CE890E00E947E0323E7EC
S1130A3030E045EF50E062E370E08DEC90E00E941E
S1130A407E0323E730E046E351E062E370E08EE0AA
S1130A5091E00E947E0320EE30E042E350E06FE933
S1130A6070E08AE090E00E947E0320EE30E043E7ED
S1130A7050E06FE970E08BE490E00E947E0320EE8A
S1130A8030E044EB50E06FE970E08CE890E00E94C5
S1130A907E0320EE30E045EF50E06FE970E08DEC2E
S1130AA090E00E947E0320EE30E046E351E06FE9DF
S1130AB070E08EE091E00E947E032FEF3FEF4FE362
S1130AC051E060E170E080E090E00E94E0022FEFEE
S1130AD03FEF4FE351E06DE770E080E090E00E946B
S1130AE0E0022FEF3FEF4FED50E060E170E08FE365
S1130AF090E00E942F032FEF3FEF4FED50E060E1B5
S1130B0070E08FE790E00E942F032FEF3FEF4FED4F
S1130B1050E060E170E081EC90E00E942F032FEF41
S1130B203FEF4FED50E060E170E081E091E00E9422
S1130B302F031F910F9108956F927F928F929F922E
S1130B40AF92BF92CF92DF92EF92FF920F931F93D7
S1130B50CF93DF935C013B01EA0149017901E61A75
S1130B60F70A6A01C81AD90A86E30E94F00180EAEA
S1130B700E94C8018AE20E94F0018B2D0E94C801E4
S1130B808A2D0E94C8018D2F0E94C8018C2F0E94BB
S1130B90C8018BE20E94F00180E00E94C801862D0A
S1130BA00E94C80180E00E94C801882D0E94C801EB
S1130BB08CE20E94F001DD20A4F418C0C0E0D0E073
S1130BC0812F0E94C801802F0E94C8012196EC1633
S1130BD0FD06B4F78FEFA81AB80ACA14DB041CF494
S1130BE005C0A12CB12CFF204CF7F4CFDF91CF919D
S1130BF01F910F91FF90EF90DF90CF90BF90AF9037
S1130C009F908F907F906F9008950F931F938C0106
S1130C1020EF30E040E451E060E070E080E090E0FC
S1130C200E949C051F910F9108958F929F92AF92FD
S1130C30BF92CF92DF92EF92FF920F931F93CF93C5
S1130C40DF937C016B014A01E8015901A01AB10A42
S1130C501C161D0634F400E018EFAB01B5010E9428
S1130C609C05EF9744F400E010E09501A601B4015F
S1130C70C7010E949C05DF91CF911F910F91FF90B6
S1130C80EF90DF90CF90BF90AF909F908F9008959A
S1130C90CF93DF93CDB7DEB76697CDBFDEBF8DB7F9
S1130CA09EB7865E91098DBF9EBFADB7BEB7119644
S1130CB07D0180915C2590915D250F2EF7E19F2E9B
S1130CC0F02D989EF001999EF00D1124EA0FFB1F60
S1130CD02FE335E220833183108A2BE430E022872E
S1130CE0338745E550E04687578724873587428315
S1130CF053830CE810E0018B128BABE9B0E0A38BBB
S1130D00B48B16821782108611860F2EF2E34F2EB3
S1130D10512CF02D448255820F2EF4EBAF2EB12CC2
S1130D20F02DA58AB68A6C016FEFC61AD60A0F2E6B
S1130D30FCE46F2EF5E27F2EF02D678A708E9C9C6A
S1130D40F0019D9CF00D1124EE0DFF1DFF24F39482
S1130D50F08A42875387268737872487358729E196
S1130D6030E022833383018B128BA38BB48B1682E6
S1130D7017821086118644825582A58AB68A029605
S1130D8080935C2590935D250E9435010E94770134
S1130D900E940102E0E2F6E080E1858382E085833F
S1130DA0FE01319686E1DF011D928A95E9F780E024
S1130DB090E00E94050681E30E948504C12CD12C99
S1130DC00F2EF1EBEF2EFAE0FF2EF02D0F2EF2E7AF
S1130DD0AF2EF02DB12C0F2EFFED7F2EF02D812C98
S1130DE00F2EF0EA9F2EF02D612C212C312C412C5A
S1130DF0512CF70180818823E4F783E090E00E947E
S1130E00990190ED980F9A3028F4C82ED12CF0E374
S1130E10CF1AD1088B32A1F4F601EE0FFF1F81E047
S1130E2090E08C0F9D1FE80FF91F8081918101963E
S1130E308034910514F08FE390E08083918313C094
S1130E408D3289F4F601EE0FFF1FA1E0B0E0AC0F84
S1130E50BD1FEA0FFB1F80819181019712F480E08E
S1130E6090E080839183B5E0CB16D1042CF0272D3C
S1130E70382D492D562D04C02A2D3B2D43E350E037
S1130E80EAE0CE16D10400F5F6018827E250FF4FC0
S1130E908F4F0C94760765E371E08FE091E018C002
S1130EA064EF742D8EEC952D13C063EB722D8DE8D9
S1130EB0932D0EC06A2D7B2D8CE490E009C061E374
S1130EC070E08BE090E004C060E070E080E090E0CF
S1130ED0F601EE0FFF1FA1E0B0E0AC0FBD1FEA0F5B
S1130EE0FB1F008111810E94150683CFEE0FFF1FA7
S1130EF0881F8BBF0790F691E02D1994F894FFCFCB
S1130F0000000000F00F381858185818981898184E
S1130F1018191819181A181A181CF00F00000000D4
S1130F2000000000800380078001800180018001AF
S1130F3080018001800180018001800100000000A7
S1130F4000000000F00F181818181800380070007E
S1130F50E0018007000E00180018F81F00000000D0
S1130F6000000000F00F1818181818001800F003FB
S1130F7018001800180018181818F00F00000000C6
S1130F80000000007000F000B00130033006300CA7
S1130F903018F81F3000300030003000000000002E
S1130FA000000000F81F0018001800180018F00FC7
S1130FB018001800180018181818F00F0000000086
S1130FC000000000F00F1818181800180018F01F7F
S1130FD018181818181818181818F00F000000001E
S1130FE000000000F81F18181800300030006000DE
S1130FF06000C000C000800180018001000000008A
S113100000000000F00F1818181818181818F00F1E
S113101018181818181818181818F00F00000000DD
S113102000000000F00F1818181818181818F80FF6
S113103018001800180018181818F00F0000000005
S113104000000000E007F00F181818181818F81F0F
S1131050181818181818181818181818000000006C
S113106000000000F01F1818181818181818F01F9E
S113107018181818181818181818F01F000000006D
S113108000000000F00F18181818001800180018B5
S113109000180018001818181818F00F00000000A5
S11310A000000000E01F3018181818181818181835
S11310B018181818181818183018E01F0000000025
S11310C000000000F81F0018001800180018E01FA6
S11310D000180018001800180018F81F000000007D
S11310E000000000F81F0018001800180018C01FA6
S11310F0001800180018001800180018000000005C
S113110000000000E00F181818180018001838180C
S113111018181818181818181818E80F00000000E4
S11311200000000018181818181818181818F81FB4
S1131130181818181818181818181818000000008B
S11311400000000080018001800180018001800195
S11311508001800180018001800180010000000085
S1131160000000003000300030003000300030005B
S113117030003000301830183018E007000000004C
S11311800000000030183018301830182018C01F24
S1131190301830183018301830183018000000009B
S11311A000000000001800180018001800180018AB
S11311B000180018001800180018F81F000000009C
S11311C0000000001818381C781ED81B981918182D
S11311D018181818181818181818181800000000EB
S11311E0000000001818181C181E181A181B98194B
S11311F09819D818581878183818181800000000CA
S113120000000000F00F18181818181818181818EB
S113121018181818181818181818F00F00000000DB
S113122000000000F01F1818181818181818F01FDC
S1131230001800180018001800180018000000001A
S113124000000000F00F18181818181818181818AB
S11312501818181818189819D818F00F3000180012
S113126000000000F01F1818181818181818F01F9C
S1131270181818181818181818181818000000004A
S113128000000000F00F1818181800180018F00FCC
S113129018001800180018181818F00F00000000A3
S11312A000000000F81F800180018001800180019E
S11312B08001800180018001800180010000000024
S11312C000000000181818181818181818181818FA
S11312D018181818181818181818F00F000000001B
S11312E0000000001818181818181818300C300CC2
S11312F0300C700E60066006C00380010000000020
S113130000000000181818181818181818181818B9
S113131018189819D81B781E381C100800000000F3
S1131320000000001818381C700E6006C00380010D
S11313308001C0036006700E381C181800000000FD
S11313400000000018181818381C700E6006C0033E
S11313508001800180018001800180010000000083
S113136000000000F81F1800180030006000C001E1
S113137080030006000C00180018F81F000000008D
S11313800000000080018001800180018001800153
S113139080018001800100008001800100000000C4
S11313A000000000600660066006F81FF81F600673
S11313B06006F81FF81F6006600660060000000063
S11313C00000000000000000000000000000000019
S11313D00000000000000000800180010000000007
S11313E000000000F80F0C180C180C000C00F8009A
S11313F0C001800180010000800180010000000024
S113140000000000000000000000000000000000D8
S113141000000000000000000000000000000000C8
S1131420505245534554203100564F4C00474149D2
S11314304E004C4F57004D49440048494748004826
S1131440454156592044495354203100434C4541A9
S10F14504E2047524F4F564520310000FB
S9030000FC
