S01100004D61696E626F6172642E7372656386
S11300000C94FE000C941F010C941F010C941F010E
S11300100C941F010C941F010C941F010C941F01DC
S11300200C941F010C941F010C941F010C941F01CC
S11300300C941F010C941F010C941F010C941F01BC
S11300400C941F010C941F010C941F010C941F01AC
S11300500C941F010C941F010C941F010C941F019C
S11300600C941F010C941F010C941F010C941F018C
S11300700C941F010C941F010C941F010C941F017C
S11300800C941F010C941F010C941F010C941F016C
S11300900C941F010C941F010C941F010C941F015C
S11300A00C941F010C941F010C941F010C941F014C
S11300B00C941F010C941F010C941F010C941F013C
S11300C00C941F010C941F010C941F010C941F012C
S11300D00C941F010C941F010C941F010C941F011C
S11300E00C941F010C941F010C941F010C941F010C
S11300F00C941F010C941F010C941F010C941F01FC
S11301000C941F010C941F010C941F010C941F01EB
S11301100C941F010C941F010C941F010C941F01DB
S11301200C941F010C941F010C941F010C941F01CB
S11301300C941F010C941F010C941F010C941F01BB
S11301400C941F010C941F010C941F010C941F01AB
S11301500C941F010C941F010C941F010C941F019B
S11301600C941F010C941F010C941F010C941F018B
S11301700C941F010C941F010C941F010C941F017B
S11301800C941F010C941F010C941F010C941F016B
S11301900C941F010C941F010C941F010C941F015B
S11301A00C941F010C941F010C941F010C941F014B
S11301B00C941F010C941F010C941F010C941F013B
S11301C00C941F010C941F010C941F010C941F012B
S11301D00C941F010C941F010C941F010C941F011B
S11301E00C941F010C941F010C941F010C941F010B
S11301F00C941F010C941F010C941F0111241FBEA9
S1130200CFEFCDBFDFE5DEBF00E00CBF15E2A0E01D
S1130210B0E2EAEDF7E000E00BBF02C007900D92F8
S1130220A832B107D9F725E2A8E2B5E201C01D92D0
S1130230AA32B207E1F70E9437030C94EB030C9443
S1130240000082E080935000E0E5F0E0818181FFCE
S1130250FDCF88ED84BFE0E4F0E0118284BF81E04B
S11302608083A0E0B6E088EF8C93E0E0F2E01082B7
S11302701182128214961C92E0E2F6E08FEF8083E2
S1130280A0E4B2E01C9211961C92119712961C9253
S1130290108A118A148A158A168A148210924006CA
S11302A09BEB9093600690938006E0EAF6E08083EF
S11302B014822FEF87EA91E6215080409040E1F7C5
S11302C000C000000895E0EAF9E02CE0268390E401
S11302D09783138288E1848333E03583E0EBF9E08C
S11302E026839783138284833583E0EAFAE02683A6
S11302F097831382848332E03583E0EBFAE026832C
S113030097831382848335830895E0E2F6E090E2D4
S113031095838093A40680E4868385830895282F9B
S113032030E09FEB980F9A3118F42B54310906C032
S113033090ED980F9A3010F420533109C9010895B3
S1130340882329F090E000009F5F9813FCCF089564
S1130350CF93DF93C0E2D6E090E29E838093A4061D
S11303608AE00E94A00180E48E838D83DF91CF9187
S1130370089588E20E94A80181E10E94A80186E311
S11303800E94A80180E80E9485018AE30E94A801D6
S113039085E50E94850182EB0E94A8018CE00E9401
S11303A085018CE00E94850180E00E94850183E341
S11303B00E94850183E30E94850187EB0E94A801C6
S11303C085E30E9485018BEB0E94A8018BE20E94C9
S11303D0850180EC0E94A8018CE20E94850182ECD8
S11303E00E94A80181E00E9485018FEF0E9485018F
S11303F083EC0E94A80181E10E94850184EC0E94A3
S1130400A80180E20E94850186EC0E94A8018FE089
S11304100E94850180ED0E94A80184EA0E94850162
S113042081EA0E94850180EE0E94A80180ED0E946D
S1130430850180E00E94850185E00E9485018EE0AF
S11304400E94850185E10E9485018DE00E9485015D
S113045087E30E94850183E40E94850187E40E946A
S1130460850189E00E94850185E10E94850182E180
S11304700E94850186E10E94850189E10E9485012F
S113048081EE0E94A80180ED0E94850180E00E9417
S1130490850185E00E9485018DE00E9485018CE044
S11304A00E94850186E00E9485018DE20E948501FB
S11304B084E40E94850180E40E9485018EE00E940C
S11304C085018CE10E94850188E10E94850186E115
S11304D00E94850189E10E9485018AE20E94A801A7
S11304E080E00E94850180E00E94850180E00E94F6
S11304F085018FEE0E9485018BE20E94A80180E0B5
S11305000E94850180E00E94850181E00E948501AE
S11305108FE30E94850189E20E94A8012FEF81EEFA
S113052094E0215080409040E1F700C0000008951D
S1130530CF92DF92EF92FF920F931F93CF93DF93AB
S1130540082FEB01142FE32EF22E86E30E94A8015C
S113055080EA0E9485018AE20E94A8018D2F0E94F0
S113056085018C2F0E948501CE014096892F0E941F
S113057085018C2F805F0E9485018BE20E94A80177
S113058080E00E948501812F0E94850180E00E9405
S1130590850180E1810F0E948501802F0E948F01D7
S11305A0880F991F82959295907F9827807F98272E
S11305B0EC01C95DDF4D8CE20E94A8018E016E0141
S11305C080E2C80ED11C21C0F801408151810C2E5B
S11305D002C0559547950A94E2F740FF07C08E2D57
S11305E00E9485018F2D0E94850106C080E00E9433
S11305F0850180E00E9485012196C031D10521F753
S11306000E5F1F4F0C151D0519F0C0E0D0E0DCCFC4
S1130610DF91CF911F910F91FF90EF90DF90CF90DA
S11306200895CF92DF92EF92FF920F931F93CF938F
S1130630DF93FC01EB017A0169018081882371F069
S11306408F010F5F1F4F9601A701BE010E94980200
S11306506096F80181918F018111F5CFDF91CF91DF
S11306601F910F91FF90EF90DF90CF9008952F92FC
S11306703F925F926F927F928F929F92AF92BF92BE
S1130680CF92DF92EF92FF920F931F93CF93DF935A
S1130690CDB7DEB76DB67EB68DB79EB7865E9109CF
S11306A08DBF9EBF01964C018091282590912925EC
S11306B00F2EF7E15F2EF02D589EF001599EF00D9C
S11306C01124E80DF91D20E030E220833183108AE3
S11306D02BE430E02287338745E550E0468757878F
S11306E024873587428353830F2EFCE8EF2EF12CA9
S11306F0F02DE18AF28A0BE910E0038B148B168249
S1130700178210861186A2E3B0E0A483B5830F2E6E
S1130710F4EB2F2E312CF02D258A368A6C016FEFE5
S1130720C61AD60A0F2EFDE0AF2EF0E2BF2EF02D32
S1130730A78AB08E5C9CF0015D9CF00D1124E80D3D
S1130740F91DDD24D394D08A4287538726873787BF
S11307502487358729E130E022833383E18AF28AD2
S1130760038B148B1682178210861186A483B5839B
S1130770258A368A029680932825909329250E94FB
S113078021010E9463010E94B901E0E2F6E080E1E8
S1130790858382E085832FEF3FEF44E650E064E6F3
S11307A070E08CE190E20E94110380E090E06DBE65
S11307B07EBEDF91CF911F910F91FF90EF90DF905C
S11307C0CF90BF90AF909F908F907F906F905F90ED
S10D07D03F902F900895F894FFCF96
S11307DA48454156592044495354203100434C4515
S11307EA414E2047524F4F564520310048454C4C04
S11307FA4F574F524C440000000000F00F3818586D
S113080A1858189818981818191819181A181A1814
S113081A1CF00F0000000000000000800380078025
S113082A01800180018001800180018001800180B2
S113083A0180010000000000000000F00F181818E1
S113084A18180038007000E0018007000E00180034
S113085A18F81F0000000000000000F00F18181814
S113086A1818001800F003180018001800181818AF
S113087A18F00F00000000000000007000F000B043
S113088A0130033006300C3018F81F3000300030C5
S113089A0030000000000000000000F81F001800EB
S11308AA1800180018F00F18001800180018181863
S11308BA18F00F0000000000000000F00F181818CC
S11308CA1800180018F01F181818181818181818EB
S11308DA18F00F0000000000000000F81F18181894
S11308EA003000300060006000C000C00080018059
S11308FA0180010000000000000000F00F18181821
S113090A1818181818F00F1818181818181818188A
S113091A18F00F0000000000000000F00F1818186B
S113092A1818181818F80F180018001800181818AA
S113093A18F00F0000000000000000E007F00F1894
S113094A1818181818F81F18181818181818181832
S113095A1818180000000000000000F01F181818EA
S113096A1818181818F01F1818181818181818181A
S113097A18F01F0000000000000000F00F181818FB
S113098A1800180018001800180018001818181869
S113099A18F00F0000000000000000E01F301818D3
S11309AA18181818181818181818181818181830A1
S11309BA18E01F0000000000000000F81F001800E3
S11309CA1800180018E01F00180018001800180072
S11309DA18F81F0000000000000000F81F001800AB
S11309EA1800180018C01F00180018001800180072
S11309FA1800180000000000000000E00F18181882
S1130A0A1800180018381818181818181818181868
S1130A1A18E80F0000000000000000181818181841
S1130A2A1818181818F81F18181818181818181851
S1130A3A18181800000000000000008001800180DE
S1130A4A0180018001800180018001800180018090
S1130A5A0180010000000000000000300030003076
S1130A6A00300030003000300030003018301830C8
S1130A7A18E00700000000000000003018301830A9
S1130A8A1830182018C01F30183018301830183091
S1130A9A18301800000000000000000018001800B8
S1130AAA1800180018001800180018001800180078
S1130ABA18F81F00000000000000001818381C78FD
S1130ACA1ED81B981918181818181818181818184E
S1130ADA18181800000000000000001818181C1844
S1130AEA1E181A181B98199819D8185818781838EB
S1130AFA1818180000000000000000F00F18181859
S1130B0A1818181818181818181818181818181857
S1130B1A18F00F0000000000000000F01F18181859
S1130B2A1818181818F01F001800180018001800D0
S1130B3A1800180000000000000000F00F18181830
S1130B4A181818181818181818181818189819D8D6
S1130B5A18F00F3000180000000000F01F181818D1
S1130B6A1818181818F01F18181818181818181818
S1130B7A1818180000000000000000F00F181818D8
S1130B8A1800180018F00F18001800180018181880
S1130B9A18F00F0000000000000000F81F80018018
S1130BAA018001800180018001800180018001802F
S1130BBA018001000000000000000018181818182D
S1130BCA1818181818181818181818181818181897
S1130BDA18F00F0000000000000000181818181878
S1130BEA181818300C300C300C700E60066006C0F1
S1130BFA03800100000000000000001818181818EB
S1130C0A1818181818181818189819D81B781E388C
S1130C1A1C100800000000000000001818381C709E
S1130C2A0E6006C00380018001C0036006700E389E
S1130C3A1C181800000000000000001818181838C2
S1130C4A1C700E6006C0038001800180018001804F
S1130C5A0180010000000000000000F81F180018BD
S1130C6A0030006000C00180030006000C00180078
S1130C7A18F81F00000000000000008001800180B5
S1130C8A01800180018001800180018001000080CF
S1130C9A0180010000000000000000600660066098
S1130CAA06F81FF81F60066006F81FF81F60066042
S1130CBA06600600000000000000000000000000BA
S1130CCA0000000000000000000000000000008096
S1130CDA0180010000000000000000F80F0C180C4D
S1130CEA180C000C00F800C001800180010000808B
S10B0CFA01800100000000006C
S9030000FC
