S01100004D61696E626F6172642E7372656386
S11300000C94FE000C941F010C941F010C941F010E
S11300100C941F010C941F010C941F010C941F01DC
S11300200C941F010C941F010C941F010C941F01CC
S11300300C941F010C941F010C941F010C941F01BC
S11300400C941F010C941F010C941F010C941F01AC
S11300500C941F010C941F010C941F010C941F019C
S11300600C941F010C941F010C941F010C941F018C
S11300700C941F010C941F010C941F010C941F017C
S11300800C941F010C941F010C941F010C941F016C
S11300900C941F010C941F010C941F010C941F015C
S11300A00C941F010C941F010C941F010C941F014C
S11300B00C941F010C941F010C941F010C941F013C
S11300C00C941F010C941F010C941F010C941F012C
S11300D00C941F010C941F010C941F010C941F011C
S11300E00C941F010C941F010C941F010C941F010C
S11300F00C941F010C941F010C941F010C941F01FC
S11301000C941F010C941F010C941F010C941F01EB
S11301100C941F010C941F010C941F010C941F01DB
S11301200C941F010C941F010C941F010C941F01CB
S11301300C941F010C941F010C941F010C941F01BB
S11301400C941F010C941F010C941F010C941F01AB
S11301500C941F010C941F010C941F010C941F019B
S11301600C941F010C941F010C941F010C941F018B
S11301700C941F010C941F010C941F010C941F017B
S11301800C941F010C941F010C941F010C941F016B
S11301900C941F010C941F010C941F010C941F015B
S11301A00C941F010C941F010C941F010C941F014B
S11301B00C941F010C941F010C941F010C941F013B
S11301C00C941F010C941F010C941F010C941F012B
S11301D00C941F010C941F010C941F010C941F011B
S11301E00C941F010C941F010C941F010C941F010B
S11301F00C941F010C941F010C941F0111241FBEA9
S1130200CFEFCDBFDFE5DEBF00E00CBF15E2A0E01D
S1130210B0E2EEEEFDE000E00BBF02C007900D92ED
S1130220AC35B107D9F725E2ACE5B5E201C01D92C2
S1130230AE35B207E1F70E9430060C94F5060C9433
S1130240000082E080935000E0E5F0E0818181FFCE
S1130250FDCF88ED84BFE0E4F0E0118284BF81E04B
S11302608083A0E0B6E088EF8C93E0E0F2E01082B7
S11302701182128214961C92E0E2F6E08FEF8083E2
S1130280A0E4B2E01C9211961C92119712961C9253
S1130290108A118A148A158A168A148210924006CA
S11302A09BEB9093600690938006E0EAF6E08083EF
S11302B014822FEF87EA91E6215080409040E1F7C5
S11302C000C000000895E0EAF9E02CE0268390E401
S11302D09783138288E1848333E03583E0EBF9E08C
S11302E026839783138284833583E0EAFAE02683A6
S11302F097831382848332E03583E0EBFAE026832C
S1130300978313828483358308958130910591F016
S11303101CF4892B39F026C08230910599F003979B
S1130320C9F020C0E1EAF9E080818823ECF78091EC
S1130330A0090895E1EBF9E080818823ECF780912E
S1130340B0090895E1EAFAE080818823ECF780910E
S1130350A00A0895E1EBFAE080818823ECF780910C
S1130360B00A089580E00895E0E2F6E090E2958313
S11303708093A40680E4868385830895282F30E043
S11303809FEB980F9A3118F4275331090BC090ED65
S1130390980F9A3018F42053310904C0803211F4B4
S11303A028E230E0C9010895882329F090E0000094
S11303B09F5F9813FCCF0895CF93DF93C0E2D6E0FC
S11303C090E29E838093A4068AE00E94D40180E494
S11303D08E838D83DF91CF91089588E20E94DC01A2
S11303E081E10E94DC0186E30E94DC0180E80E9436
S11303F0B4018AE30E94DC0185E50E94B40182EB2A
S11304000E94DC018CE00E94B4018CE00E94B401E3
S113041080E00E94B40183E30E94B40183E30E945C
S1130420B40187EB0E94DC0185E30E94B4018BEBED
S11304300E94DC018BE20E94B40180EC0E94DC018A
S11304408CE20E94B40182EC0E94DC0181E00E94F3
S1130450B4018FEF0E94B40183EC0E94DC0181E1BE
S11304600E94B40184EC0E94DC0180E20E94B40189
S113047086EC0E94DC018FE00E94B40180ED0E94B2
S1130480DC0184EA0E94B40181EA0E94B40180EE96
S11304900E94DC0180ED0E94B40180E00E94B4015E
S11304A085E00E94B4018EE00E94B40185E10E94BF
S11304B0B4018DE00E94B40187E30E94B40183E497
S11304C00E94B40187E40E94B40189E00E94B4014F
S11304D085E10E94B40182E10E94B40186E10E9498
S11304E0B40189E10E94B40181EE0E94DC0180ED37
S11304F00E94B40180E00E94B40185E00E94B4012E
S11305008DE00E94B4018CE00E94B40186E00E9458
S1130510B4018DE20E94B40184E40E94B40180E439
S11305200E94B4018EE00E94B4018CE10E94B401E7
S113053088E10E94B40186E10E94B40189E10E942D
S1130540B4018AE20E94DC0180E00E94B40180E0F0
S11305500E94B40180E00E94B4018FEE0E94B401B5
S11305608BE20E94DC0180E00E94B40180E00E94E2
S1130570B40181E00E94B4018FE30E94B40189E2D6
S11305800E94DC012FEF81EE94E0215080409040E6
S1130590E1F700C000000895CF92DF92EF92FF923E
S11305A00F931F93CF93DF93EC01D62E8A01F32E82
S11305B0E22EC82EC40E86E30E94DC0180E80E946D
S11305C0B4018AE20E94DC0180E00E94B4018D2D16
S11305D00E94B40180E00E94B4018D2D0E94B401F8
S11305E08BE20E94DC018D2F0E94B4018C2F0E94AB
S11305F0B401C00FD11F8D2F0E94B4018C2D0E9415
S1130600B4018CE20E94DC011016110664F4C0E00F
S1130610D0E08F2D0E94B4018E2D0E94B40121964A
S1130620C017D107B1F7DF91CF911F910F91FF90C0
S1130630EF90DF90CF900895CF92DF92EF92FF92E8
S11306400F931F93CF93DF93D82FD92EC62F7A0100
S1130650132F022FC62EC40E86E30E94DC0180EA0B
S11306600E94B4018AE20E94DC018D2D0E94B40133
S11306708D2F0E94B4018D2D0E94B4018D2F0E94F4
S1130680B4018BE20E94DC0180E00E94B4018C2F53
S11306900E94B40180E00E94B4018C2D0E94B40138
S11306A08CE20E94DC011E141F0464F4C0E0D0E05C
S11306B0812F0E94B401802F0E94B4012196CE158F
S11306C0DF05B1F7DF91CF911F910F91FF90EF906C
S11306D0DF90CF9008956F927F928F929F92AF9206
S11306E0BF92CF92DF92EF92FF920F931F93CF931B
S11306F0DF937C01EB016A01590138018901061B72
S1130700170B4A01881A990A9301A4010E94CC028A
S11307109301A401B501C7010E94CC029301A80171
S1130720BE01C7010E941C039301A801BE01C601BA
S11307300E941C03DF91CF911F910F91FF90EF90C6
S1130740DF90CF90BF90AF909F908F907F906F90ED
S113075008958F929F92AF92BF92CF92DF92EF92C1
S1130760FF920F931F93CF93DF93CDB7DEB7A0977C
S1130770CDBFDEBFC82E7B01D42EB32EA22E912E68
S1130780802E86E30E94DC0180EA0E94B4018AE2A2
S11307900E94DC018F2D0E94B4018E2D0E94B401B1
S11307A0C7010F96892F0E94B4018FE08E0D0E941D
S11307B0B4018BE20E94DC0180E00E94B4018D2D23
S11307C00E94B40180E00E94B4018FE08D0D0E946C
S11307D0B4018C2D0E94BE01880F991F82959295B9
S11307E0907F9827807F9827FC01E050F04E9E016F
S11307F02F5F3F4F7901805E9F4DD9012191319147
S11308002D933D93E817F907C9F78CE20E94DC01A8
S11308106E0131E2C30ED11C21C0F7014081518128
S1130820002E02C0559547950A94E2F740FF07C091
S11308308B2D0E94B4018A2D0E94B40106C0892D1B
S11308400E94B401882D0E94B4010150110928F7B7
S113085022E0E20EF11CEC14FD0419F00FE010E0AC
S1130860DCCFA096CDBFDEBFDF91CF911F910F915A
S1130870FF90EF90DF90CF90BF90AF909F908F90BC
S113088008958F929F92AF92BF92CF92DF92EF9290
S1130890FF920F931F93CF93DF93FC01EB016A0147
S11308A0590148018081882381F07F019FEFE91A73
S11308B0F90A84019501A601BE010E94A90360966C
S11308C0F70181917F018111F4CFDF91CF911F91C5
S11308D00F91FF90EF90DF90CF90BF90AF909F90DB
S11308E08F9008950F931F930FEF1FEF20E030E0D8
S11308F040E050E060E070E080E295E20E94410454
S113090020E030E04EE150E065E070E089E295E2FD
S11309100E94410420E030E04EE150E06FE370E0DB
S11309208DE295E20E94410420E030E04EE150E087
S113093067E870E082E395E20E94410420E030E041
S11309404EE150E068EC70E086E395E20E944104D9
S113095020E030E04EE150E060E071E08AE395E2AF
S11309600E94410420E030E04BE850E065E070E094
S113097089E295E20E94410420E030E04BE850E037
S11309806FE370E08DE295E20E94410420E030E0E4
S11309904BE850E067E870E082E395E20E9441048E
S11309A020E030E04BE850E068EC70E086E395E24C
S11309B00E94410420E030E04BE850E060E071E048
S11309C08AE395E20E94410400E010E023E730E06E
S11309D042E350E062E370E08AE090E00E946B033F
S11309E023E730E041E750E062E370E089E490E01F
S11309F00E946B0323E730E041EB50E062E370E0D8
S1130A0089E890E00E946B0323E730E043EF50E075
S1130A1062E370E08BEC90E00E946B0323E730E02C
S1130A2043E351E062E370E08BE091E00E946B03EA
S1130A3020EE30E042E350E06FE970E08AE090E0BD
S1130A400E946B0320EE30E041E750E06FE970E074
S1130A5089E490E00E946B0320EE30E041EB50E02B
S1130A606FE970E089E890E00E946B0320EE30E0CB
S1130A7043EF50E06FE970E08BEC90E00E946B0371
S1130A8020EE30E043E351E06FE970E08BE091E069
S1130A900E946B0320E030E04FE351E060E170E03E
S1130AA080E090E00E94CC0220E030E04FE351E08F
S1130AB06DE770E080E090E00E94CC0220E030E03E
S1130AC04FED50E060E170E08FE390E00E941C0382
S1130AD020E030E04FED50E060E170E08FE790E01F
S1130AE00E941C0320E030E04FED50E060E170E034
S1130AF081EC90E00E941C0320E030E04FED50E0D8
S1130B0060E170E081E091E00E941C031F910F916D
S1130B1008956F927F928F929F92AF92BF92CF92DD
S1130B20DF92EF92FF920F931F93CF93DF935C01B9
S1130B303B01EA0149017901E61AF70A6A01C81A78
S1130B40D90A86E30E94DC0180EA0E94B4018AE2A9
S1130B500E94DC018B2D0E94B4018A2D0E94B401F5
S1130B608D2F0E94B4018C2F0E94B4018BE20E944D
S1130B70DC0180E00E94B401862D0E94B40180E073
S1130B800E94B401882D0E94B4018CE20E94DC0111
S1130B901C141D04A4F019C0C0E0D0E0812F0E94F1
S1130BA0B401802F0E94B4012196CE15DF05B1F760
S1130BB08FEFA81AB80AAC14BD0419F406C0A12C0E
S1130BC0B12C1E141F0444F3F3CFDF91CF911F9176
S1130BD00F91FF90EF90DF90CF90BF90AF909F90D8
S1130BE08F907F906F9008950F931F938C0120EF47
S1130BF030E040E451E060E070E080E090E00E948A
S1130C0089051F910F9108950F931F93CF93DF933D
S1130C10CB016FEF70E00E94CD0625EB2603E001C7
S1130C20279FD00D1124C152DF4F0FEF1FEF9E01FC
S1130C3040E750E06EE970E088E490E00E948905A6
S1130C400FE110E02FED30E040E750E0BE0188E412
S1130C5090E00E948905DF91CF911F910F91089533
S1130C60CF93DF93CDB7DEB78DB79EB7865E91097C
S1130C708DBF9EBFEDB7FEB731967F0180915C2595
S1130C8090915D250F2EF7E19F2EF02D989EF00197
S1130C90999EF00D1124EE0DFF1D2FE335E2208304
S1130CA03183108A2BE430E02287338745E550E016
S1130CB04687578724873587428353830CE810E09F
S1130CC0018B128BABE9B0E0A38BB48B1682178235
S1130CD0108611860F2EF2E34F2E512CF02D4482F4
S1130CE055820F2EF4EBAF2EB12CF02DA58AB68AC7
S1130CF06C016FEFC61AD60A0F2EFCE46F2EF5E2D4
S1130D007F2EF02D678A708E9C9CF0019D9CF00DC7
S1130D101124EE0DFF1DFF24F394F08A42875387BC
S1130D20268737872487358729E130E02283338378
S1130D30018B128BA38BB48B1682178210861186BB
S1130D4044825582A58AB68A029680935C25909344
S1130D505D250E9421010E9463010E94ED01E0E2F1
S1130D60F6E080E1858382E085838FEF9FEF0E9428
S1130D70F40581E30E94720401EB1AE0F80180811A
S1130D808823E4F783E090E00E948501682F70E0F7
S1130D9082E090E00E940406F1CF97FB072E16F440
S1130DA0009407D077FD09D00E94E10607FC05D026
S1130DB03EF4909581959F4F0895709561957F4F6E
S1130DC00895AA1BBB1B51E107C0AA1FBB1FA6178E
S1130DD0B70710F0A61BB70B881F991F5A95A9F7E0
S1110DE080959095BC01CD010895F894FFCF45
S1130DEE00000000F00F3818581858189818981862
S1130DFE18191819181A181A181CF00F00000000E8
S1130E0E00000000800380078001800180018001C2
S1130E1E80018001800180018001800100000000BA
S1130E2E00000000F00F1818181818003800700091
S1130E3EE0018007000E00180018F81F00000000E3
S1130E4E00000000F00F1818181818001800F0030E
S1130E5E18001800180018181818F00F00000000D9
S1130E6E000000007000F000B00130033006300CBA
S1130E7E3018F81F30003000300030000000000041
S1130E8E00000000F81F0018001800180018F00FDA
S1130E9E18001800180018181818F00F0000000099
S1130EAE00000000F00F1818181800180018F01F92
S1130EBE18181818181818181818F00F0000000031
S1130ECE00000000F81F18181800300030006000F1
S1130EDE6000C000C000800180018001000000009D
S1130EEE00000000F00F1818181818181818F00F32
S1130EFE18181818181818181818F00F00000000F1
S1130F0E00000000F00F1818181818181818F80F09
S1130F1E18001800180018181818F00F0000000018
S1130F2E00000000E007F00F181818181818F81F22
S1130F3E181818181818181818181818000000007F
S1130F4E00000000F01F1818181818181818F01FB1
S1130F5E18181818181818181818F01F0000000080
S1130F6E00000000F00F18181818001800180018C8
S1130F7E00180018001818181818F00F00000000B8
S1130F8E00000000E01F3018181818181818181848
S1130F9E18181818181818183018E01F0000000038
S1130FAE00000000F81F0018001800180018E01FB9
S1130FBE00180018001800180018F81F0000000090
S1130FCE00000000F81F0018001800180018C01FB9
S1130FDE001800180018001800180018000000006F
S1130FEE00000000E00F1818181800180018381820
S1130FFE18181818181818181818E80F00000000F8
S113100E0000000018181818181818181818F81FC7
S113101E181818181818181818181818000000009E
S113102E00000000800180018001800180018001A8
S113103E8001800180018001800180010000000098
S113104E000000003000300030003000300030006E
S113105E30003000301830183018E007000000005F
S113106E0000000030183018301830182018C01F37
S113107E30183018301830183018301800000000AE
S113108E00000000001800180018001800180018BE
S113109E00180018001800180018F81F00000000AF
S11310AE000000001818381C781ED81B9819181840
S11310BE18181818181818181818181800000000FE
S11310CE000000001818181C181E181A181B98195E
S11310DE9819D818581878183818181800000000DD
S11310EE00000000F00F18181818181818181818FF
S11310FE18181818181818181818F00F00000000EF
S113110E00000000F01F1818181818181818F01FEF
S113111E001800180018001800180018000000002D
S113112E00000000F00F18181818181818181818BE
S113113E1818181818189819D818F00F3000180025
S113114E00000000F01F1818181818181818F01FAF
S113115E181818181818181818181818000000005D
S113116E00000000F00F1818181800180018F00FDF
S113117E18001800180018181818F00F00000000B6
S113118E00000000F81F80018001800180018001B1
S113119E8001800180018001800180010000000037
S11311AE000000001818181818181818181818180D
S11311BE18181818181818181818F00F000000002E
S11311CE000000001818181818181818300C300CD5
S11311DE300C700E60066006C00380010000000033
S11311EE00000000181818181818181818181818CD
S11311FE18189819D81B781E381C10080000000007
S113120E000000001818381C700E6006C003800120
S113121E8001C0036006700E381C18180000000010
S113122E0000000018181818381C700E6006C00351
S113123E8001800180018001800180010000000096
S113124E00000000F81F1800180030006000C001F4
S113125E80030006000C00180018F81F00000000A0
S113126E0000000080018001800180018001800166
S113127E80018001800100008001800100000000D7
S113128E00000000600660066006F81FF81F600686
S113129E6006F81FF81F6006600660060000000076
S11312AE000000000000000000000000000000002C
S11312BE000000000000000080018001000000001A
S11312CE00000000F80F0C180C180C000C00F800AD
S11312DEC001800180010000800180010000000037
S11312EE00000000000000000000000000000000EC
S11312FE00000000000000000000000000000000DC
S113130E505245534554203100564F4C00474149E5
S113131E4E004C4F57004D49440048494748004839
S113132E454156592044495354203100434C4541BC
S10F133E4E2047524F4F5645203100000E
S9030000FC
