S01100004D61696E626F6172642E7372656386
S11300000C94FE000C941F010C941F010C941F010E
S11300100C941F010C941F010C941F010C941F01DC
S11300200C941F010C941F010C941F010C941F01CC
S11300300C941F010C941F010C941F010C941F01BC
S11300400C941F010C941F010C941F010C941F01AC
S11300500C941F010C941F010C941F010C941F019C
S11300600C941F010C941F010C941F010C941F018C
S11300700C941F010C941F010C941F010C941F017C
S11300800C941F010C941F010C941F010C941F016C
S11300900C941F010C941F010C941F010C941F015C
S11300A00C941F010C941F010C941F010C941F014C
S11300B00C941F010C941F010C941F010C941F013C
S11300C00C941F010C941F010C941F010C941F012C
S11300D00C941F010C941F010C941F010C941F011C
S11300E00C941F010C941F010C941F010C941F010C
S11300F00C941F010C941F010C941F010C941F01FC
S11301000C941F010C941F010C941F010C941F01EB
S11301100C941F010C941F010C941F010C941F01DB
S11301200C941F010C941F010C941F010C941F01CB
S11301300C941F010C941F010C941F010C941F01BB
S11301400C941F010C941F010C941F010C941F01AB
S11301500C941F010C941F010C941F010C941F019B
S11301600C941F010C941F010C941F010C941F018B
S11301700C941F010C941F010C941F010C941F017B
S11301800C941F010C941F010C941F010C941F016B
S11301900C941F010C941F010C941F010C941F015B
S11301A00C941F010C941F010C941F010C941F014B
S11301B00C941F010C941F010C941F010C941F013B
S11301C00C941F010C941F010C941F010C941F012B
S11301D00C941F010C941F010C941F010C941F011B
S11301E00C941F010C941F010C941F010C941F010B
S11301F00C941F010C941F010C941F0111241FBEA9
S1130200CFEFCDBFDFE5DEBF00E00CBF15E2A0E01D
S1130210B0E2E6ECFAE000E00BBF02C007900D92FA
S1130220AA34B107D9F725E2AAE4B5E201C01D92C8
S1130230AC34B207E1F70E94B0040C9461050C944D
S1130240000082E080935000E0E5F0E0818181FFCE
S1130250FDCF88ED84BFE0E4F0E0118284BF81E04B
S11302608083A0E0B6E088EF8C93E0E0F2E01082B7
S11302701182128214961C92E0E2F6E08FEF8083E2
S1130280A0E4B2E01C9211961C92119712961C9253
S1130290108A118A148A158A168A148210924006CA
S11302A09BEB9093600690938006E0EAF6E08083EF
S11302B014822FEF87EA91E6215080409040E1F7C5
S11302C000C000000895E0EAF9E02CE0268390E401
S11302D09783138288E1848333E03583E0EBF9E08C
S11302E026839783138284833583E0EAFAE02683A6
S11302F097831382848332E03583E0EBFAE026832C
S113030097831382848335830895E0E2F6E090E2D4
S113031095838093A40680E4868385830895282F9B
S113032030E09FEB980F9A3118F4275331090BC032
S113033090ED980F9A3018F42053310904C080329C
S113034011F428E230E0C9010895882329F090E0EF
S113035000009F5F9813FCCF0895CF93DF93C0E212
S1130360D6E090E29E838093A4068AE00E94A501D1
S113037080E48E838D83DF91CF91089588E20E947B
S1130380AD0181E10E94AD0186E30E94AD0180E8E8
S11303900E9485018AE30E94AD0185E50E948501E2
S11303A082EB0E94AD018CE00E9485018CE00E94EA
S11303B0850180E00E94850183E30E94850183E337
S11303C00E94850187EB0E94AD0185E30E948501AF
S11303D08BEB0E94AD018BE20E94850180EC0E94B0
S11303E0AD018CE20E94850182EC0E94AD0181E0A6
S11303F00E9485018FEF0E94850183EC0E94AD016C
S113040081E10E94850184EC0E94AD0180E20E949A
S1130410850186EC0E94AD018FE00E94850180ED8C
S11304200E94AD0184EA0E94850181EA0E9485014F
S113043080EE0E94AD0180ED0E94850180E00E9463
S1130440850185E00E9485018EE00E94850185E199
S11304500E9485018DE00E94850187E30E94850149
S113046083E40E94850187E40E94850189E00E945B
S1130470850185E10E94850182E10E94850186E172
S11304800E94850189E10E94850181EE0E94AD01EF
S113049080ED0E94850180E00E94850185E00E9434
S11304A085018DE00E9485018CE00E94850186E033
S11304B00E9485018DE20E94850184E40E948501E9
S11304C080E40E9485018EE00E9485018CE10E94F7
S11304D0850188E10E94850186E10E94850189E108
S11304E00E9485018AE20E94AD0180E00E9485019C
S11304F080E00E94850180E00E9485018FEE0E94C9
S113050085018BE20E94AD0180E00E94850180E0BC
S11305100E94850181E00E9485018FE30E9485018C
S113052089E20E94AD012FEF81EE94E021508040DA
S11305309040E1F700C000000895CF92DF92EF925F
S1130540FF920F931F93CF93DF93EC01D62E8A0172
S1130550F32EE22EC82EC40E86E30E94AD0180E87D
S11305600E9485018AE20E94AD0180E00E9485011B
S11305708D2D0E94850180E00E9485018D2D0E94B1
S113058085018BE20E94AD018D2F0E9485018C2F85
S11305900E948501C00FD11F8D2F0E9485018C2DD3
S11305A00E9485018CE20E94AD011016110664F4CC
S11305B0C0E0D0E08F2D0E9485018E2D0E94850120
S11305C02196C017D107B1F7DF91CF911F910F91F9
S11305D0FF90EF90DF90CF900895CF92DF92EF924B
S11305E0FF920F931F93CF93DF93092F182F86E366
S11305F00E94AD0180E80E9485018AE20E94AD015B
S113060080E00E94850180E00E94850180E00E94D4
S113061085018FEE0E9485018BE20E94AD0180E08E
S11306200E94850180E00E94850181E00E9485018D
S11306308FE30E9485018CE20E94AD016894EE2450
S1130640E6F8FF24F3940F2EF0EFCF2EF02DD12CEB
S11306500CC0802F0E948501812F0E948501219763
S1130660C1F781E0E81AF10819F0CC2DDD2DF1CFA6
S1130670DF91CF911F910F91FF90EF90DF90CF907A
S11306800895CF92DF92EF92FF920F931F93CF932F
S1130690DF93D82FD92EC62F7A01132F022FC62EFF
S11306A0C40E86E30E94AD0180EA0E9485018AE2BD
S11306B00E94AD018D2D0E9485018D2F0E94850120
S11306C08D2D0E9485018D2F0E9485018BE20E9451
S11306D0AD0180E00E9485018C2F0E94850180E09D
S11306E00E9485018C2D0E9485018CE20E94AD013F
S11306F01E141F0464F4C0E0D0E0812F0E94850121
S1130700802F0E9485012196CE15DF05B1F7DF9178
S1130710CF911F910F91FF90EF90DF90CF900895AC
S11307208F929F92AF92BF92CF92DF92EF92FF92FD
S11307300F931F93CF93DF93CDB7DEB7A097CDBFB1
S1130740DEBFC82E7B01D42EB32EA22E912E802E76
S113075086E30E94AD0180EA0E9485018AE20E943C
S1130760AD018F2D0E9485018E2D0E948501C70148
S11307700F96892F0E9485018FE08E0D0E948501BE
S11307808BE20E94AD0180E00E9485018D2D0E94C4
S1130790850180E00E9485018FE08D0D0E94850116
S11307A08C2D0E948F01880F991F82959295907FBE
S11307B09827807F9827FC01E050F04E9E012F5F20
S11307C03F4F7901805E9F4DD901219131912D9345
S11307D03D93E817F907C9F78CE20E94AD016E0159
S11307E031E2C30ED11C21C0F70140815181002E9A
S11307F002C0559547950A94E2F740FF07C08B2D38
S11308000E9485018A2D0E94850106C0892D0E94BF
S11308108501882D0E9485010150110928F722E0E5
S1130820E20EF11CEC14FD0419F00FE010E0DCCF33
S1130830A096CDBFDEBFDF91CF911F910F91FF90A6
S1130840EF90DF90CF90BF90AF909F908F900895DE
S11308508F929F92AF92BF92CF92DF92EF92FF92CC
S11308600F931F93CF93DF93FC01EB016A015901AE
S113087048018081882381F07F019FEFE91AF90AFA
S113088084019501A601BE010E9490036096F701C0
S113089081917F018111F4CFDF91CF911F910F914D
S11308A0FF90EF90DF90CF90BF90AF909F908F908C
S11308B008950F931F930FEF1FEF20E030E040E007
S11308C050E060E070E080E295E20E94280420E0BD
S11308D030E04FE351E060E170E080E090E00E949E
S11308E09D0220E030E04FE351E06DE770E080E0EE
S11308F090E00E949D0220E030E04FED50E060E186
S113090070E080E490E00E94410320E030E04FED8D
S113091050E060E170E080E890E00E94410320E054
S113092030E04FED50E060E170E082EC90E00E9436
S1130930410320E030E04FED50E060E170E082E000
S113094091E00E94410320E030E04EE150E065E098
S113095070E089E295E20E9428041F910F910895A6
S11309602F923F925F926F927F928F929F92AF925B
S1130970BF92CF92DF92EF92FF920F931F93CF9388
S1130980DF93CDB7DEB76DB67EB68DB79EB7865E04
S113099091098DBF9EBF01964C0180914A2590918B
S11309A04B250F2EF7E15F2EF02D589EF001599E36
S11309B0F00D1124E80DF91D2DE235E22083318379
S11309C0108A2BE430E02287338745E550E04687E0
S11309D0578724873587428353830F2EFCE8EF2EF5
S11309E0F12CF02DE18AF28A0BE910E0038B148BD1
S11309F01682178210861186A2E3B0E0A483B58321
S1130A000F2EF4EB2F2E312CF02D258A368A6C0113
S1130A106FEFC61AD60A0F2EFAE3AF2EF5E2BF2EF9
S1130A20F02DA78AB08E5C9CF0015D9CF00D112422
S1130A30E80DF91DDD24D394D08A42875387268795
S1130A4037872487358729E130E022833383E18A9D
S1130A50F28A038B148B1682178210861186A48364
S1130A60B583258A368A029680934A2590934B252E
S1130A700E9421010E9463010E94BE01E0E2F6E0AF
S1130A8080E1858382E085838FEF9FEF0E94ED02F2
S1130A9081E30E94590480E090E06DBE7EBEDF9148
S1130AA0CF911F910F91FF90EF90DF90CF90BF9067
S1130AB0AF909F908F907F906F905F903F902F901A
S1090AC00895F894FFCF35
S1130AC600000000F00F381858185818981898188D
S1130AD618191819181A181A181CF00F0000000013
S1130AE600000000800380078001800180018001EE
S1130AF680018001800180018001800100000000E6
S1130B0600000000F00F18181818180038007000BC
S1130B16E0018007000E00180018F81F000000000E
S1130B2600000000F00F1818181818001800F00339
S1130B3618001800180018181818F00F0000000004
S1130B46000000007000F000B00130033006300CE5
S1130B563018F81F3000300030003000000000006C
S1130B6600000000F81F0018001800180018F00F05
S1130B7618001800180018181818F00F00000000C4
S1130B8600000000F00F1818181800180018F01FBD
S1130B9618181818181818181818F00F000000005C
S1130BA600000000F81F181818003000300060001C
S1130BB66000C000C00080018001800100000000C8
S1130BC600000000F00F1818181818181818F00F5D
S1130BD618181818181818181818F00F000000001C
S1130BE600000000F00F1818181818181818F80F35
S1130BF618001800180018181818F00F0000000044
S1130C0600000000E007F00F181818181818F81F4D
S1130C1618181818181818181818181800000000AA
S1130C2600000000F01F1818181818181818F01FDC
S1130C3618181818181818181818F01F00000000AB
S1130C4600000000F00F18181818001800180018F3
S1130C5600180018001818181818F00F00000000E3
S1130C6600000000E01F3018181818181818181873
S1130C7618181818181818183018E01F0000000063
S1130C8600000000F81F0018001800180018E01FE4
S1130C9600180018001800180018F81F00000000BB
S1130CA600000000F81F0018001800180018C01FE4
S1130CB6001800180018001800180018000000009A
S1130CC600000000E00F181818180018001838184B
S1130CD618181818181818181818E80F0000000023
S1130CE60000000018181818181818181818F81FF3
S1130CF618181818181818181818181800000000CA
S1130D0600000000800180018001800180018001D3
S1130D1680018001800180018001800100000000C3
S1130D260000000030003000300030003000300099
S1130D3630003000301830183018E007000000008A
S1130D460000000030183018301830182018C01F62
S1130D5630183018301830183018301800000000D9
S1130D6600000000001800180018001800180018E9
S1130D7600180018001800180018F81F00000000DA
S1130D86000000001818381C781ED81B981918186B
S1130D961818181818181818181818180000000029
S1130DA6000000001818181C181E181A181B981989
S1130DB69819D81858187818381818180000000008
S1130DC600000000F00F181818181818181818182A
S1130DD618181818181818181818F00F000000001A
S1130DE600000000F01F1818181818181818F01F1B
S1130DF60018001800180018001800180000000059
S1130E0600000000F00F18181818181818181818E9
S1130E161818181818189819D818F00F3000180050
S1130E2600000000F01F1818181818181818F01FDA
S1130E361818181818181818181818180000000088
S1130E4600000000F00F1818181800180018F00F0A
S1130E5618001800180018181818F00F00000000E1
S1130E6600000000F81F80018001800180018001DC
S1130E768001800180018001800180010000000062
S1130E860000000018181818181818181818181838
S1130E9618181818181818181818F00F0000000059
S1130EA6000000001818181818181818300C300C00
S1130EB6300C700E60066006C0038001000000005E
S1130EC600000000181818181818181818181818F8
S1130ED618189819D81B781E381C10080000000032
S1130EE6000000001818381C700E6006C00380014C
S1130EF68001C0036006700E381C1818000000003C
S1130F060000000018181818381C700E6006C0037C
S1130F1680018001800180018001800100000000C1
S1130F2600000000F81F1800180030006000C0011F
S1130F3680030006000C00180018F81F00000000CB
S1130F460000000080018001800180018001800191
S1130F568001800180010000800180010000000002
S1130F6600000000600660066006F81FF81F6006B1
S1130F766006F81FF81F60066006600600000000A1
S1130F860000000000000000000000000000000057
S1130F960000000000000000800180010000000045
S1130FA600000000F80F0C180C180C000C00F800D8
S1130FB6C001800180010000800180010000000062
S1130FC60000000000000000000000000000000017
S1130FD60000000000000000000000000000000007
S1130FE6505245534554203100564F4C0048454114
S1130FF656592044495354203100434C45414E2010
S10D100647524F4F564520310000B9
S9030000FC
